:020000040800F2
:10000000D019002045010008D51800082910000863
:10001000D118000813070008E32F000800000000B3
:10002000000000000000000000000000D92D0008C2
:10003000E9090008000000005D190008C52E00084D
:100040005F0100085F0100085F0100085F01000810
:100050005F0100085F0100085F0100085F01000800
:100060005F0100085F010008ED0900085F0100085A
:100070005F0100085F0100085F0100085F010008E0
:100080005F0100085F0100085F0100085F010008D0
:100090005F0100085F0100085F0100085F010008C0
:1000A0005F0100085F0100085F0100085F010008B0
:1000B0005F0100085F0100085F0100085F010008A0
:1000C0005F0100085F0100085F0100085F01000890
:1000D0005F010008312F00085F0100085F01000880
:1000E0005F0100085F0100085F0100085F01000870
:1000F0005F0100085F0100085F0100085F01000860
:100100005F010008251C00085F0100085F0100086E
:100110005F0100085F0100085F0100085F0100083F
:100120005F0100085F0100085F0100085F0100082F
:10013000DFF80CD000F0BEFA00480047515100082B
:10014000D01900200648804706480047FEE7FEE732
:10015000FEE7FEE7FEE7FEE7FEE7FEE7FEE7FEE777
:10016000C92E00083101000840EA01039B0703D0B3
:1001700009E008C9121F08C0042AFAD203E011F8E6
:10018000013B00F8013B521EF9D27047D2B201E0A8
:1001900000F8012B491EFBD270470022F6E710B58C
:1001A00013460A4604461946FFF7F0FF204610BDE5
:1001B000421C10F8011B0029FBD1801A70472DE961
:1001C000FE4F804681EA0300C00F0C46009021F0EC
:1001D000004123F00045B8EB0200A94105D240469A
:1001E000214690461C460B46024623F00040104331
:1001F00047D0270DC7F30A00C3F30A510290401AF3
:10020000019040286BDAC3F3130040F4801B009880
:10021000924620B10023D2EB030A63EB0B0B01984B
:100220005946C0F14002504600F0B6F906460D4668
:1002300050465946019A00F0CEF910EB0800614192
:10024000002487EA115284EAE7731A4340D0009AE7
:1002500062B3019A012A4FEA075215DC001B61EBD9
:1002600002014FF0004202EA0752CDE90042001CB1
:1002700041F5801132462B4600F0CEF903B0BDE8BF
:10028000F08F40462146F9E7001B61EB0201001C9C
:1002900041F5801300185B412018A2F5001747EBC9
:1002A000030140EAD570B6196D4111E06D084FEABF
:1002B000360645EAC0754FEA0752001B61EB0201A2
:1002C000001C41F5801149084FEA300000195141E6
:1002D00032462B4603B0BDE8F04F00F08EB90098CF
:1002E000012240000023D0EB020263EBE073009890
:1002F00021464FEAE074B8EB000061EB0401E9E746
:1003000083F000435BE781F0004158E72DE9FE4FA1
:1003100081EA030404F0004421F0004100944FF00E
:10032000000B23F0004350EA01045ED052EA0304BC
:100330005BD0C3F30A54C1F30A552C44A4F2F3343E
:100340000194A0FB0254C1F3130141F48011C3F3E3
:10035000130343F4801301FB024400FB034E840AA1
:10036000970A44EA815447EA8357A4FB0768029539
:100370008D0A05FB07854FEA932C04FB0C542705D7
:10038000029D4FEA065847EA1637B5EB08056EEBB3
:10039000070C870E920E47EA811742EA8312A7FBE9
:1003A0000201B6EB0B0164EB00042B0D43EA0C33A6
:1003B0005E1844EB1C50DA465146E7FB0201C5F3D8
:1003C00013044FEA0B3343EA14534FEA0432019CFF
:1003D00043EA0603A4F10C040294009CCDE900B4A6
:1003E00000F01AF903B0BDE8F08F00200146F9E7EC
:1003F0002DE9F04D81EA030404F0004B21F00045A3
:1004000014464FF0000A23F0004150EA050220D0C4
:1004100054EA01021DD0C5F30A570246C5F313037F
:10042000C1F31300C1F30A5640F4801543F480135E
:10043000A7EB0608101BD64608F2FD3873EB050043
:1004400002D308F1010801E092185B41B8F1000FF6
:1004500003DA00200146BDE8F08D00204FF4801142
:10046000064684460EE0171B73EB050705D3121BE7
:1004700063EB050306434CEA010C49084FEA3000E0
:1004800092185B4150EA0107EDD152EA030012D005
:1004900082EA040083EA0501084305D0101BAB4142
:1004A00006D20122002306E000224FF0004302E0C2
:1004B0006FF0010253101AEB06004CEB085110EBE1
:1004C0000A0041EB0B01BDE8F04D00F096B80EB507
:1004D000C10F80EAE0700844CA07002140F23343AC
:1004E0008DE80E000A460B4600F096F803B000BDFA
:1004F0000EB540F2334102910021CDE900110A46C8
:100500000B4600F089F803B000BDC1F30A5210B5E4
:10051000C1F3130140F2FF3341F480119A4201DA32
:10052000002010BD40F233439A42A2F2334203DC72
:10053000524200F040F810BD904010BD30B5041E8E
:1005400071F1000404DB4FF00044404264EB010110
:10055000141E73F1000405DB1C464FF000435242A9
:1005600063EB04038B4208BF824230BD30B50B46BB
:10057000014600202022012409E021FA02F59D42D3
:1005800005D303FA02F5491B04FA02F52844151EA7
:10059000A2F10102F1DC30BD202A04DB203A00FA8E
:1005A00002F1002070479140C2F1200320FA03F3CA
:1005B000194390407047202A04DB203A21FA02F0C8
:1005C0000021704721FA02F3D040C2F1200291408D
:1005D000084319467047202A06DBCB17203A41FA18
:1005E00002F043EAE07306E041FA02F3D040C2F1C0
:1005F0002002914008431946704710B5141E73F14C
:10060000000408DA401C41F1000192185B411A43D2
:1006100001D120F0010010BD2DE9F04D92469B461E
:1006200011B1B1FA81F202E0B0FA80F220329046C4
:10063000FFF7B2FF04460F4640EA0A0041EA0B0109
:1006400053465A46084313D0114653EA010019D0C5
:10065000C8F140025046FFF7AEFF05460E46504631
:1006600059464246FFF798FF084305D0012004E0B1
:1006700020463946BDE8F08D0020054346EAE07685
:100680002C4337430A986305E40AA0EB08000022D4
:10069000FD0A44EA47540A3002D500200146E9E742
:1006A000010510196941DDE9084500196941BDE8F6
:1006B000F04DA2E7064C074D06E0E06840F001036C
:1006C00094E8070098471034AC42F6D3FFF734FDA6
:1006D000985B0008B85B000830B58C1810F8012B47
:1006E00012F00F0301D110F8013B120906D110F8E6
:1006F000012B03E010F8015B01F8015B5B1EF9D1EF
:1007000001E001F8013B521EFBD1A142E6D30020DB
:1007100030BD00BFFEE7000038B500241A49684626
:1007200002F09AFD18B3BDF80210BDF800004FF4B6
:10073000784201F07BF8BDF80200E82821DDBDF821
:100740000200B0F58D7F1CDABDF80000062805DD3B
:10075000BDF80000382801DA012412E0BDF80000DD
:100760005F2805DDBDF80000912801DA022408E0C9
:10077000BDF80000B32804DDBDF80000E52800DA6C
:100780000324204638BD00000800002070B5002575
:100790004FF4803400E0641E24B1802001F022FA7E
:1007A0000028F8D014B90325284670BD40F2FF5048
:1007B00001F0D0F92846F8E7014600BF0748406B32
:1007C00000F045000028F9D040F2FF50034A906342
:1007D0001046406908221040C0B2704700800140B6
:1007E00070B500251048446B01E00F48446B04F0DD
:1007F00045000028F9D004F0040028B103250420A6
:1008000001F0A8F9284670BD04F0010028B10125C7
:10081000012001F09FF92846F5E740F2FF5001F072
:1008200099F92846EFE700000080014070B50025E7
:100830000B48446B01E00A48446B04F04500002873
:10084000F9D004F0040028B10325042001F082F956
:10085000284670BD40F2FF5001F07CF92846F8E7C9
:10086000008001402DE9F04106460F464FF0000898
:100870002248456B01E02148456B05F04500002802
:10088000F9D005F0040038B14FF00308042001F05E
:1008900061F94046BDE8F08105F0010030B14FF04C
:1008A0000108012001F056F94046F3E701F094F900
:1008B000B04203D04FF010084046EBE740F2FF5043
:1008C00001F048F9002001F0A1F9044604F4604069
:1008D00018B9200C38804046DCE704F4005008B119
:1008E0001320D7E704F4804008B11020D2E704F4C5
:1008F000004008B10F20CDE74046CBE70080014023
:1009000070B500264FF480350F48446B02E06D1E31
:100910000D48446B04F0450008B9002DF7D115B11E
:1009200004F0040028B10326042001F013F9304636
:1009300070BD04F0400028B10026402001F00AF903
:100940003046F5E73046F3E70080014000F0805183
:1009500011B10349086001E0024948607047000096
:10096000040402400000024021B1026842F001028A
:10097000026004E002684FF6FE731A40026070479E
:1009800001460020002201F0805313B1054B1A6884
:1009900001E0054B1A6802EA01030BB1012000E0F7
:1009A00000207047000402400000024010B5002201
:1009B000026847F6F0739A430C6A8B6823430C690C
:1009C00023434C6923438C692343CC6923434C6AFA
:1009D00023438C6A23431A430260CB6843600B684D
:1009E00083604B68C36010BD7047000010B51020D5
:1009F00000F010F828B1012002490870102000F022
:100A000003F810BD3800002001490860704700005D
:100A100014040140014600200022074B1B6803EA32
:100A20000102054B14331B680B4013B10AB10120BE
:100A300000E000207047000000040140002123492D
:100A40008279002A3AD00A46126803689A430B4614
:100A50001A600A1D126803689A430B1D1A60027916
:100A600011440A6803681A430A60184A0832126877
:100A700003689A43154B08331A601A1D12680368FD
:100A80009A43124B0C331A604279102A0ED11A1F66
:100A9000126803681A430D4B08331A601A1D126856
:100AA00003681A43094B0C331A600DE00749427979
:100AB00011440A6803681A430A6005E00279114488
:100AC0000A6803689A430A60704700000004014006
:100AD00051B18200A2F1C042126842F001038200CB
:100AE000A2F1C042136009E08200A2F1C042126884
:100AF000034B1A408300A3F1C0431A607047000003
:100B0000FEFF0F00D0E901121143C26811430269D0
:100B100011434269114382691143C2691143026A58
:100B20001143426A1143826A1143C26A1143026B44
:100B3000114302689200A2F1C04211608168082945
:100B40000BD101688900A1F1C041096841F0400260
:100B500001688900A1F1C0410A60416B0968426BDC
:100B6000526841EA0211426B926841EA0221426BEB
:100B7000928941EA0241426B128A41EA0251426B78
:100B8000127D41EA0261426B926911430268521C74
:100B90009200A2F1C0421160C16AB1F5804F1BD131
:100BA000816B0968826B526841EA0211826B92681C
:100BB00041EA0221826B128A41EA0251826B127D64
:100BC00041EA0261826B9269114302689200A2F1CC
:100BD000C042C2F8041107E06FF07042016889005A
:100BE000A1F1C041C1F80421704700002DE9FC418A
:100BF00007460D46002600240020009001900820A2
:100C00005D49086010204860402088600020C8606E
:100C10004FF480600861084601F036F81020FFF7B5
:100C2000CBFD044614B12046BDE8FC815348008842
:100C30000004514908603720486040208860002047
:100C4000C8604FF480600861084601F01DF8372045
:100C5000FFF7B2FD04460CB12046E5E74FF0FF3048
:100C60004749086008204860302088600220C8603A
:100C70000020086101204861084600F083FF002041
:100C80003D49086033204860402088600020C860EB
:100C90004FF480600861084600F0F6FF3320FFF74C
:100CA0008BFD04460CB12046BEE70CE04FF400106B
:100CB00000F098FF38B100F0E1FF4DF82600761CF7
:100CC000012E00D906E02F48406B40F22A6108400F
:100CD0000028EBD000BF082000F084FF28B10820D6
:100CE00000F038FF042420469EE7022000F07AFF3F
:100CF00028B1022000F02EFF0224204694E7202095
:100D000000F070FF28B1202000F024FF06242046C8
:100D10008AE74FF4007000F065FF30B14FF40070C7
:100D200000F018FF072420467EE740F2FF5000F055
:100D300011FF00980006009901F47F4140EA01206C
:100D4000009901F47F0140EA1120009940EA116006
:100D5000686001980006019901F47F4140EA012092
:100D6000019901F47F0140EA1120019940EA1160E4
:100D70002860204658E70000AC11002050040020F5
:100D8000C01100200080014008B501F063FF01227E
:100D90000021684601F008FE9DF80000512805D1A9
:100DA000302201210D4801F0FFFD13E000BF02F0E9
:100DB000AFFB0028FBD051200090002001F068FF1D
:100DC00001220021684601F017FE3022012103486C
:100DD00001F012FE01F0C4FF08BD00000800002071
:100DE00008B50121302000F017FE4FF4F850ADF89F
:100DF000000003208DF8020018208DF803006946DA
:100E0000094800F035F80420ADF8000069460748AD
:100E100000F02EF80121880200F0EEFD01210220F1
:100E200000F0EAFD08BD0000001001400014014080
:100E300030B500228B071C0F0F2303FA04F20B4B73
:100E40008C1053F824309343084C8D1044F825300F
:100E500023468C1053F824308C07240F00FA04F436
:100E60002343024C8D1044F8253030BD080001406A
:100E70002DE9F04102460025002600200023002431
:100E8000002791F803C00CF00F0591F803C00CF097
:100E9000100CBCF1000F03D091F802C04CEA05051C
:100EA00091F800C0BCF1000F31D0146800202BE095
:100EB0004FF0010C0CFA00F3B1F800C00CEA030685
:100EC0009E4220D183004FF00F0C0CFA03F7BC4375
:100ED00005FA03FC4CEA040491F803C0BCF1280FA6
:100EE00006D14FF0010C0CFA00FCC2F814C00AE065
:100EF00091F803C0BCF1480F05D14FF0010C0CFA7A
:100F000000FCC2F810C0401C0828D1D31460B1F80E
:100F100000C0BCF1FF0F34DD546800202EE000F16A
:100F2000080C4FF0010808FA0CF3B1F800C00CEA05
:100F300003069E4221D183004FF00F0C0CFA03F7F9
:100F4000BC4305FA03FC4CEA040491F803C0BCF16D
:100F5000280F05D100F1080C08FA0CF8C2F814802B
:100F600091F803C0BCF1480F07D100F1080C4FF015
:100F7000010808FA0CF8C2F81080401C0828CED3EB
:100F80005460BDE8F0810246002093680B400BB12D
:100F9000012000E000207047416170470161704707
:100FA0002DE9F04105460C462612E7B2A6F1B00045
:100FB000C0EB001101EB401007EB4000A1384FEAF5
:100FC00040181149002003F04DFD01220FA11348E4
:100FD00003F05EFD124908700846007888B9414662
:100FE0000E4803F066FC0F4B202229460B4803F005
:100FF00009FE0B490870094803F050FC0020BDE8C9
:10100000F0814FF0FF30FAE76C040020303A2F48AF
:101010005A4C49422E62696E00000000CC08002044
:101020003C0000204002002000BFFEE710B504464F
:101030002CB14FF480510548FFF7AEFF04E04FF4A8
:1010400080510248FFF7AAFF10BD000000140140C4
:101050002DE9F04106460F4614461D46DDF818807E
:101060002B4622463946304600F079FA04FB05F05B
:10107000414600F041F9BDE8F08101B502E0009879
:10108000401E009000980028F9D108BD2DE9F04FCE
:1010900089B081468A4616461F46DDF848B01023BF
:1010A0001A465146484600F05AFA2C2000F0CFFB71
:1010B000314601A8FFF774FF002426E001A810F8CC
:1010C00014504FF6FF7000EA0525012000EB4400A4
:1010D00001A9085C05434FF0000811E005F4004049
:1010E00018B1584600F0B8FB02E0384600F0B4FBF7
:1010F0004FF6FF7000EA450508F1010000F0FF0817
:10110000B8F1100FEADB601CC4B2102CD6DB09B0BA
:10111000BDE8F08F2DE9F05F81468A4615461E46F0
:10112000A5F1200000F0FF0B10230822514648468D
:1011300000F015FA2C2000F08AFB00241AE00F487A
:1011400000EB0B10075D4FF000080EE007F0010008
:1011500018B10A9800F080FB02E0304600F07CFBFA
:101160007F1008F1010000F0FF08B8F1080FEDDB77
:10117000601CC4B2102CE2DBBDE8F09F985500085B
:101180002DE9F84305460E4614461F46DDF820803B
:1011900018E0281FD82803DD0C2506F1100086B2C0
:1011A000A6F17C00502801DD0C258C26CDF80080AE
:1011B00022783B4631462846FFF7ACFF641C05F118
:1011C000080085B220780028E3D1BDE8F8832DE936
:1011D000F84305460E4614469946DDF820803AE06D
:1011E00020787E2819DC281FD82803DD0C2506F17D
:1011F000100086B2A6F17C00502801DD0C258C265B
:10120000CDF8008022784B4631462846FFF782FF12
:1012100005F1080085B2641C1DE0281DD82803DDF7
:101220000C2506F1100086B2A6F17C00502801DDE5
:101230000C258C262788380200EB272087B24B46E6
:101240003A4631462846CDF80080FFF71FFF05F1EA
:10125000100085B2A41C20780028C1D1BDE8F88315
:1012600038B504460D464FF47840A4F10A010090C9
:1012700088B2012314222946FFF7EAFE4FF4784092
:101280000090A5F10A0081B2142301222046FFF745
:10129000DFFE38BD00B597B00121080200F0ACFBBD
:1012A000022001900020029005200390002004906D
:1012B000059006904FF0805007900020089009900C
:1012C00008200A9010200B9000200C900E900F9098
:1012D00010904FF4805011900020129013901490B1
:1012E00001A81590169008A8FFF70CFC012100201A
:1012F000FFF7EEFB17B000BD70B504460D460026A3
:101300002C2000F0A4FA00BF03E0284600F0A4FA65
:10131000761CA642F9D370BD08B50121084600F03D
:101320007BFB0121602000F077FB03208DF8020099
:1013300018208DF803004CF20370ADF800006946E8
:101340002C48FFF795FD4FF68070ADF80000694618
:101350002948FFF78DFD03208DF8020018208DF835
:1013600003001020ADF8000069462248FFF780FD19
:101370002020ADF8000069461E48FFF779FD0121E5
:10138000202000F049FB8020ADF800006946194894
:10139000FFF76EFD0121202000F03EFB4FF40060BE
:1013A000ADF8000069461348FFF762FD10208DF884
:1013B000030003208DF802000121402000F02CFBE7
:1013C0000220ADF8000069460B48FFF751FD1020E0
:1013D0008DF8030003208DF802000121202000F089
:1013E0001BFB4FF48050ADF8000069460148FFF741
:1013F0003FFD08BD001401400018014010B504462F
:10140000012C06D0022C29D0032C4CD0042C24D142
:101410006EE0362000F01BFAC82000F01DFA2A20EA
:1014200000F015FA002000F017FA002000F014FA7E
:10143000002000F011FAEF2000F00EFA2B2000F04F
:1014400006FA002000F008FA002000F005FA01205A
:1014500000F002FA3F2000F0FFF96EE0362000F0C5
:10146000F6F9682000F0F8F92A2000F0F0F90020E1
:1014700000F0F2F9002000F0EFF9012000F0ECF9A3
:101480003F2000F0E9F92B2000F0E1F9002000F006
:10149000E3F9002000F0E0F9002000F0DDF9EF2092
:1014A00000F0DAF949E0362000F0D1F9282000F008
:1014B000D3F92A2000F0CBF9002000F0CDF900206C
:1014C00000F0CAF9012000F0C7F93F2000F0C4F98C
:1014D0002B2000F0BCF9002000F0BEF9002000F045
:1014E000BBF9002000F0B8F9EF2000F0B5F924E0D6
:1014F000362000F0ACF9482000F0AEF92A2000F0C8
:10150000A6F9002000F0A8F9002000F0A5F90020BD
:1015100000F0A2F9EF2000F09FF92B2000F097F9DE
:10152000002000F099F9002000F096F9012000F069
:1015300093F93F2000F090F900BF00BF2C2000F08D
:1015400086F910BD10B5FFF7E7FEFFF7A3FE0120F7
:10155000FFF76CFD00F04CF900F032F810BD2DE9FA
:10156000F04104460D4616461F462A2000F06FF94A
:10157000201200F071F9E0B200F06EF9A119491ED5
:10158000C1F30F2000F068F9A119491EC8B200F09C
:1015900063F92B2000F05BF9281200F05DF9E8B246
:1015A00000F05AF9E919491EC1F30F2000F054F96F
:1015B000E919491EC8B200F04FF9BDE8F0810000FA
:1015C00010B5CF2000F043F9002000F045F981204C
:1015D00000F042F9302000F03FF9ED2000F037F93B
:1015E000642000F039F9032000F036F9122000F0F1
:1015F00033F9812000F030F9E82000F028F9852047
:1016000000F02AF9102000F027F9782000F024F9E2
:10161000CB2000F01CF9392000F01EF92C2000F03E
:101620001BF9002000F018F9342000F015F9022011
:1016300000F012F9F72000F00AF9202000F00CF970
:10164000EA2000F004F9002000F006F9002000F084
:1016500003F9B12000F0FBF8002000F0FDF81B209A
:1016600000F0FAF8B62000F0F2F80A2000F0F4F8E2
:10167000A22000F0F1F8C02000F0E9F8352000F0D9
:10168000EBF8C12000F0E3F8112000F0E5F8C520E8
:1016900000F0DDF8452000F0DFF8452000F0DCF830
:1016A000C72000F0D4F8A22000F0D6F8F22000F015
:1016B000CEF8002000F0D0F8262000F0C8F8012075
:1016C00000F0CAF8E02000F0C2F80F2000F0C4F8E3
:1016D000262000F0C1F8242000F0BEF80B2000F016
:1016E000BBF80E2000F0B8F8092000F0B5F854203F
:1016F00000F0B2F8A82000F0AFF8462000F0ACF8F7
:101700000C2000F0A9F8172000F0A6F8092000F03E
:10171000A3F80F2000F0A0F8072000F09DF80020AB
:1017200000F09AF8E12000F092F8002000F094F820
:10173000192000F091F81B2000F08EF8042000F032
:101740008BF8102000F088F8072000F085F82A2098
:1017500000F082F8472000F07FF8392000F07CF894
:10176000032000F079F8062000F076F8062000F05B
:1017700073F8302000F070F8382000F06DF80F207A
:1017800000F06AF8362000F062F8C82000F064F833
:101790002A2000F05CF8002000F05EF8002000F045
:1017A0005BF8002000F058F8EF2000F055F82B20EF
:1017B00000F04DF8002000F04FF8002000F04CF849
:1017C000012000F049F83F2000F046F83A2000F0F0
:1017D0003EF8552000F040F8112000F038F803489A
:1017E000FFF74BFC292000F032F810BDFCBF0200CF
:1017F00010B502210648FFF7CFFB0648FFF73DFC76
:1018000002210348FFF7CAFB0248FFF736FC10BD70
:1018100000180140FCBF020070B504460D460123CC
:101820001A4629462046FFF79AFE70BD70B5064657
:101830000C461546D82E09DA502C07DA21463046D8
:10184000FFF7EAFF29460120FFF756FD70BD4FF074
:10185000C0410880704700000149088070470000BF
:101860000000026010B5FFF76DFE01F05AFD10BDDB
:1018700008B50121082000F0CFF80120ADF80000E4
:1018800010208DF8030003208DF8020069460F48F0
:10189000FFF7EEFA0220ADF8000069460B48FFF7AB
:1018A000E7FA2020ADF8000069460848FFF7E0FAA3
:1018B00001210648FFF772FB02210448FFF76EFB87
:1018C00020210248FFF76AFB08BD0000000C014020
:1018D00000BFFEE77047000070B5002100230F2213
:1018E000C47804B3154C246804F4E064C4F5E064DF
:1018F000210AC1F10403CA40447804FA03F1847850
:101900001440214309010E4C0678A155047804F0D7
:101910001F050124AC4005786D11AD0005F1E025EF
:10192000C5F8004109E0047804F01F050124AC402B
:10193000044D0678761145F8264070BD0CED00E0A8
:1019400000E400E080E100E002490143024A116046
:10195000704700000000FA050CED00E07047000041
:10196000012804D0022815D0032839D125E01E49CA
:101970000978012903D100211B4A117002E00121DD
:10198000194A11701949096881F00101174A11605B
:10199000002026E016490978012903D10021144AC4
:1019A000117002E00121124A11701049096881F09A
:1019B00002010E4A1160002013E00E490978012946
:1019C00003D100210B4A117002E00121094A117074
:1019D0000649096881F02001044A1160002000E0F6
:1019E00000BF00BF70470000600400200C0C0140E5
:1019F000610400206204002029B1064A52690243B2
:101A0000044B5A6104E0034A52698243014B5A6114
:101A1000704700000010024029B1064A9269024353
:101A2000044B9A6104E0034A92698243014B9A6134
:101A300070470000001002407CB5054600240020DD
:101A40000090019000F0E2F800F0007010B10E2458
:101A500020467CBD3D49098888B26946FFF7C6F833
:101A600004460CB12046F4E7012D36D1019800F46C
:101A7000802000282ED035480088000434490860B2
:101A800037204860402088600020C860A8020861B4
:101A9000084600F0F9F83720FEF78EFE04460CB138
:101AA0002046D6E702202A490860062048604020E8
:101AB00088600020C8604FF480600861084600F02C
:101AC000E3F80620FEF778FE04460CB12046C0E796
:101AD0002046BEE725242046BBE7019800F480306D
:101AE00078B31A4800880004194908603720486014
:101AF000402088600020C8604FF48060086108467C
:101B000000F0C2F83720FEF757FE04460CB120461D
:101B10009FE700200E49086006204860402088604A
:101B20000020C8604FF480600861084600F0ACF8FF
:101B30000620FEF741FE04460CB1204689E7204608
:101B400087E7FFE72524204683E7000050040020B4
:101B5000AC110020014988637047000000800140FB
:101B60000149886370470000008001400149086016
:101B700070470000A0003042014908607047000033
:101B80008C05304200210A4B02685A6242689A6210
:101B90001A46D16A21F0F701D0E902231A430369FA
:101BA0001A4343691A431143014AD1627047000046
:101BB0000080014000200649086048608860C860D5
:101BC00048628862C862034888630020C86370471F
:101BD00000800140FF07C00001480069C0B27047A3
:101BE0000080014001460020034A526B0A400AB1BE
:101BF000012000E00020704700800140024800689A
:101C000000F00300704700000080014008B5014665
:101C1000002000900248084400900098006808BD29
:101C20001480014010B500F025FC10BD29B1064A12
:101C3000D26B0243044BDA6304E0034AD26B824363
:101C4000014BDA63704700000080014000210A4A1E
:101C5000516847F6FF629143027D83681A434368E7
:101C60001A43C3681A4303681A4303691A431143AA
:101C7000014A51607047000000800140014800683F
:101C800070470000808001400021094B02689A6083
:101C90001A46D1686FF30A01D0E901231A43C368D9
:101CA0001A4303691A431143014AD1607047000087
:101CB000008001400549096821F00301034A1160D1
:101CC000114609680143116070470000008001401F
:101CD00010B50248FEF754FE10BD000000200010B1
:101CE00030B58BB005460C461348FEF72FFE002199
:101CF0001248FEF739FE124800900195002002902C
:101D0000A008039000200490802005908000069099
:101D100080000790002008904FF4005009900020A8
:101D20000A9069460548FEF741FE01210348FEF787
:101D30001BFE0BB030BD000000F000104404024058
:101D40008080014030B58BB005460C461348FEF745
:101D5000FDFD00211248FEF707FE12480090019594
:101D600010200290A008039000200490802005908D
:101D70008000069080000790002008904FF40050EB
:101D8000099000200A9069460548FEF70FFE0121E0
:101D90000348FEF7E9FD0BB030BD000000F0001075
:101DA000440402408080014070B50446002521486B
:101DB0000068032802D12725284670BD1D48006809
:101DC00038B11C480068012803D01A48006802286E
:101DD0002ED1B4F5805F02D127252846EDE7B4F572
:101DE000006F14D10120FFF727FE054605BB012037
:101DF0001149087500200860486088604FF4006051
:101E0000C860002008610846FFF720FF10E00020AE
:101E1000FFF712FE05465DB901200749087500204D
:101E2000086048608860C86008610846FFF70EFFD8
:101E30002846C2E74C0400209411002030B501462A
:101E400000200022AC4B1B7881F84E30AB4B1B8836
:101E5000A1F84C30AA4B1B681A0E93090B70C2F301
:101E600083034B7002F003038B70A54B1B68C3F315
:101E70000742CA70A24B1B88C3F307220A71A04B0A
:101E80001A784A715B681A0E1301CB809C4B5B6811
:101E9000C3F30742CB8843EA1213CB8002F00F034F
:101EA0000B72974B9B88C3F30722D3094B72C2F383
:101EB00080138B72C2F34013CB72C2F300130B7307
:101EC00000234B738C4B1B681BB18B4B1B68012B86
:101ED0003CD193071B0D0B61894B1A790B6943EABF
:101EE00082030B61864B9B681A0E0B6943EA9213BF
:101EF0000B61C2F3C2030B7502F007034B75804BF5
:101F00009B68C3F3074253098B75C2F38203CB75F9
:101F100093075B0F0B767A4B1B89C3F307220B7E6B
:101F200043EAD2130B760B695B1C4B640C7E4B6C43
:101F3000A41C0125A5406B434B640C7A0123A340EC
:101F40008B64D1E9113463434B6421E06A4B1B6815
:101F5000022B1DD16A4B1A7993069B0A0B61684BC1
:101F60009B681A0E0B6943EA02230B61644B9B6862
:101F7000C3F307420B6913430B61614B1B89C3F326
:101F800007220B695B1CDB044B644FF400738B640A
:101F9000C2F3801301F8193F93065B0E4B70584B48
:101FA0001A7A4B7843EAD2134B7002F07F038B709E
:101FB000534BDB681A0ED309CB70C2F341130B717C
:101FC000C2F382034B7193071B0F8B714C4BDB6881
:101FD000C3F307428B7943EA92138B71C2F3401328
:101FE000CB7100230B7202F001034B72444B9B89AF
:101FF000C3F30722D3098B72C2F38013CB72C2F3EF
:1020000040130B73C2F300134B73C2F381038B7342
:1020100002F00303CB733A4B1A7B53080B74012372
:102020004B74384B1B681A0ECA741939354B1B6830
:10203000C3F307421402CC85324B1B88C3F307223B
:10204000CB8D1343CB852F4B1A7814060C635B683A
:102050001A0E0B6B43EA02440C632A4B5B68C3F312
:1020600007420B6B43EA02240C63264B9B88C3F3A5
:1020700007220B6B13430B63224B1A7934235A54F8
:10208000204B9B681A0E35235A541E4B9B68C3F392
:10209000074214068C631B4B1B89C3F307228B6B0F
:1020A00043EA02448C63174B1A7A8B6B43EA02248F
:1020B0008C63144BDB681A0E8B6B13438B63114BD1
:1020C000DB68C3F307423C235B5C43EA12143C2306
:1020D0005C5413071C0DCC870A4B9B89C3F3072262
:1020E000CB8F1343CB87074B1A7B540840235C5498
:1020F000012441235C5430BD4C04002050040020D6
:10210000141100202411002008B50020009068461A
:1021100000F0D8FA08B1FF2008BD0098C0F34320B2
:10212000FAE710B50424FFF7EFFF0446042C01D1B1
:10213000002010BDFF2C01D10220FAE70120F8E7B2
:1021400010B50024FEF74CFEFFF734FD00F0CEF88A
:1021500004460CB1204610BD00F02AF804460CB12C
:102160002046F8E701201049087500200860486003
:102170008860C86008610846FFF768FD1CB90B4815
:10218000FFF75CFE044634B90849B1F84C10080466
:1021900000F07EFA044624B94FF40060FFF704FE15
:1021A00004462046D7E70000941100204411002087
:1021B00038B5002401200090FFF720FD10B9252438
:1021C000204638BD44480068042828D000204349F0
:1021D000086002204860C02088600020C8604FF47A
:1021E000806008610846FFF74FFDFEF7F9FA0446E4
:1021F0000CB12046E5E70020FFF708FD38490860EC
:102200000420FFF703FD364948600820FFF7FEFC75
:10221000334988600C20FFF7F9FC3149C8602E482B
:10222000006858B12C480068012807D02A48006887
:10223000062803D028480068022816D10020274924
:10224000086003204860402088600020C8604FF488
:10225000806008610846FFF717FD69460320FEF716
:1022600001FB04460CB12046ABE71B48006804287C
:102270002ED0BDF800001B490860BDF80000000426
:102280001649086009204860C02088600020C860A6
:102290004FF4806008610846FFF7F6FCFEF7A0FAED
:1022A00004460CB120468CE70020FFF7AFFC0E4936
:1022B00008600420FFF7AAFC0B4948600820FFF7DC
:1022C000A5FC094988600C20FFF7A0FC0649C860FE
:1022D0000024204675E700004C040020AC110020CB
:1022E0002411002050040020141100202DE9F04199
:1022F0000024002600250027A046B2205949087571
:102300000020086048608860C86008610846FFF7E0
:102310009DFC0320FFF7CEFC0120FFF727FC0020E7
:102320005149086048608860C8604FF48060086167
:102330000846FFF7A9FCFEF729FA044614B1204627
:10234000BDE8F0814FF4D570474908600820486027
:10235000402088600020C8604FF480600861084613
:10236000FFF792FCFEF7CCFA04462CB901203F4956
:1023700008604FF0804812E000203B490860372099
:102380004860402088600020C8604FF48060086189
:102390000846FFF779FC3720FEF70EFA04460020C6
:1023A0003149086037204860402088600020C860BC
:1023B0004FF4806008610846FFF766FC3720FEF79F
:1023C000FBF90446002C4AD136E00020264908607B
:1023D00037204860402088600020C8604FF480604B
:1023E00008610846FFF750FC3720FEF7E5F9044680
:1023F0000CB12046A4E71E4848EA00001A490860CC
:1024000029204860402088600020C8604FF4806028
:1024100008610846FFF738FCFEF708FA04460CB1DD
:1024200020468DE70020FFF7F1FB0646012080EAF9
:10243000D67080F001076D1C1FB94FF6FF70854202
:10244000C3D34FF6FF70854202D31B24204677E7A3
:1024500006F08040061E02D0022004490860204693
:102460006EE7000094110020AC1100204C04002005
:102470000000108010B51148006801280BD1002021
:102480000F49886040F24C40C8600C20FEF794F978
:102490000C49087002E000200A4908704FF480706F
:1024A000FFF75EFB00214FF48070FFF7BFFB0120B8
:1024B000054908600348007810BD0000540400205E
:1024C00000800140580400205C0400202DE9F04108
:1024D00007460D461446002600202C4908702C495A
:1024E00008602C4908602C49C8622C480068022802
:1024F00001D104026D0A2A4804601020284948606E
:10250000402088600020C8604FF480600861084661
:10251000FFF7BAFB1020FEF74FF9064616B130461A
:10252000BDE8F0814FF0FF301E4908600846446066
:10253000902088600220C860002008610120486166
:102540000846FFF71FFB1648056011201449486034
:10255000402088600020C8604FF480600861084611
:10256000FFF792FB1120FEF727F906460EB1304621
:10257000D6E701210802FFF759FB0120FFF7FCFA1B
:1025800021463846FFF7ACFB3046C9E75804002027
:102590005C04002054040020008001404C04002012
:1025A000AC110020C01100202DE9F04180460D46FD
:1025B00014461E46002700202E4908702E49086048
:1025C00001202E49086000202D49C8622D4800686E
:1025D000022801D104026D0A2B48046010202A4908
:1025E0004860402088600020C8604FF48060086127
:1025F0000846FFF749FB1020FEF7DEF8074617B143
:102600003846BDE8F0814FF0FF302049086006FBF6
:1026100004F04860902088600220C86000200861B3
:10262000012048610846FFF7ADFA174805601220FF
:1026300015494860402088600020C8604FF48060E1
:1026400008610846FFF720FB1220FEF7B5F80746A1
:102650000FB13846D5E701210802FFF7E7FA01205C
:10266000FFF78AFA06FB04F14046FFF739FB3846CC
:10267000C7E70000580400205C0400205404002038
:10268000008001404C040020AC110020C01100204B
:1026900070B5044600250A480460072008494860D0
:1026A000402088600020C8604FF4806008610846C0
:1026B000FFF7EAFA0720FEF77FF80546284670BDC7
:1026C000AC11002070B5044600250A4800880004BB
:1026D0000949886040F24D40C8600D20FEF76CF853
:1026E00005460DB1284670BD034840692060284664
:1026F000F9E70000500400200080014010B50024DC
:1027000000BFFFF7E5FA30B90748006818B9074875
:1027100000780028F5D00548007810B1034800780B
:1027200010BD2046FCE700005C0400205804002097
:1027300010B5002400BFFFF7CBFA30B90948006894
:1027400018B9094800780028F5D00748007810B17A
:102750000548007810BD40F2FF50FFF7FBF9204616
:10276000F8E700005C040020580400202DE9F04147
:1027700007460D461446002600202C4908702C49B7
:1027800008602C4908602C49C8622C48006802285F
:1027900001D104026D0A2A480460102028494860CB
:1027A000402088600020C8604FF4806008610846BF
:1027B000FFF76AFA1020FDF7FFFF064616B1304614
:1027C000BDE8F0811E48056018201D494860402082
:1027D00088600020C8604FF4806008610846FFF7F9
:1027E00053FA1820FDF7E8FF06460EB13046E7E73A
:1027F0004FF0FF301349086008464460902088601D
:102800000020C8600861012048610846FFF7BAF956
:1028100001210802FFF70AFA21463846FFF792FA2B
:102820000120FFF7A9F93046CAE70000580400204C
:102830005C04002054040020008001404C0400206F
:10284000AC110020C01100202DE9F84380460F464E
:1028500015461E4600240020009045490870454951
:10286000086001204449086000204449C862444887
:102870000068022801D105027F0A42480560102045
:1028800040494860402088600020C8604FF4806064
:1028900008610846FFF7F8F91020FDF78DFF0446A0
:1028A00014B12046BDE8F883374800880004354954
:1028B000086037204860402088600020C8604FF4DE
:1028C000806008610846FFF7DFF93720FDF774FFE5
:1028D00004460CB12046E5E72A480660172029493E
:1028E0004860402088600020C8604FF48060086124
:1028F0000846FFF7C9F91720FDF75EFF04460CB143
:102900002046CFE71F48076019201E494860402035
:1029100088600020C8604FF4806008610846FFF7B7
:10292000B3F91920FDF748FF04460CB12046B9E77A
:102930004FF0FF301549086006FB05F04860902015
:1029400088600020C8600861012048610846FFF7E0
:1029500019F901210802FFF769F90120FFF70CF9C5
:1029600006FB05F14046FFF7EDF920469AE7000027
:10297000580400205C040020540400200080014022
:102980004C040020AC11002050040020C011002095
:1029900021B1028842F04002028004E002884FF632
:1029A000BF731A400280704770B505460C46164644
:1029B00001211048FEF7F0FA032000F08BF9C4F370
:1029C000074000F087F9C4F3072000F083F9E0B274
:1029D00000F080F904E0FF2000F07CF928706D1C05
:1029E000301EA6F101018EB2F5D101210148FEF79A
:1029F000D5FA70BD001001402DE9F05F07460E4684
:102A000014464FF00008C146C2460025AB4606F00A
:102A1000FF0ACAF10000C5B22046E11704EB1161BC
:102A2000C1F30728E11704EB11610912A4EB01219E
:102A300001F0FF09BAF1000F20D1B8F1000F05D164
:102A400022463146384600F0D5F864E009E04FF4FC
:102A500080723146384600F0CDF806F5807607F5ED
:102A60008077B8F10000A8F1010101F0FF08EED174
:102A70004A463146384600F0BDF84CE0B8F1000F48
:102A800018D1A94510DDA9EB050000F0FF0B2A467F
:102A90003146384600F0AEF82E442F445A463146AF
:102AA000384600F0A7F836E022463146384600F0B6
:102AB000A1F830E0601B84B22046E11704EB1161FD
:102AC000C1F30728E11704EB11610912A4EB0121FE
:102AD00001F0FF092A463146384600F08BF82E44B3
:102AE0002F4409E04FF480723146384600F082F8F6
:102AF00006F5807607F58077B8F10000A8F10101AE
:102B000001F0FF08EED1B9F1000F04D04A4631467A
:102B1000384600F06FF8BDE8F09F000000B587B0C0
:102B200001210803FEF778FF01211020FEF774FF52
:102B30000120ADF8040003208DF8060010208DF868
:102B4000070001A92848FEF793F901210420FEF7A8
:102B500063FF2020ADF8040018208DF8070001A9BC
:102B60002248FEF785F901210420FEF755FF402099
:102B7000ADF8040001A91D48FEF77AF901210420EF
:102B8000FEF74AFF8020ADF8040001A91748FEF7C0
:102B90006FF901211448FEF701FA0020ADF8080092
:102BA0004FF48270ADF80A000020ADF80C0002204E
:102BB000ADF80E000120ADF810004002ADF8120093
:102BC0000820ADF814000020ADF816000720ADF87D
:102BD000180002A9064800F0E1F801210448FFF7B7
:102BE000D7FE07B000BD0000001001400008014002
:102BF0000030014070B505460C46164600F0A0F8BE
:102C000001211348FEF7C8F9022000F063F8C4F36D
:102C1000074000F05FF8C4F3072000F05BF8E0B273
:102C200000F058F8B6F5807F01DD4FF4807603E0C0
:102C3000287800F04FF86D1C301EA6F101018EB20D
:102C4000F6D101210248FEF7A9F900F05FF870BD46
:102C50000010014010B5002401210C48FEF79CF93A
:102C6000AB2000F037F8FF2000F034F8FF2000F030
:102C700031F8FF2000F02EF8FF2000F02BF804467A
:102C800001210248FEF78AF9204610BD00100140DC
:102C900010B5044600F054F800F038F801210C4853
:102CA000FEF77AF9202000F015F8C4F3074000F091
:102CB00011F8C4F3072000F00DF8E0B200F00AF8B4
:102CC00001210348FEF76AF900F020F810BD00006A
:102CD0000010014010B5044600BF02210A4800F070
:102CE0004FF80028F9D02146074800F055F800BFFA
:102CF0000121054800F044F80028F9D0024800F00E
:102D000048F8C0B210BD00000030014010B50024EA
:102D100001210A48FEF740F90520FFF7DBFF00BF5D
:102D2000FF20FFF7D7FF044604F001000028F7D189
:102D300001210248FEF732F910BD000000100140E9
:102D400010B501210548FEF727F90620FFF7C2FF5D
:102D500001210248FEF722F910BD000000100140D9
:102D600010B501210548FEF717F9B920FFF7B2FFAA
:102D700001210248FEF712F910BD000000100140C9
:102D80000246002013890B400BB1012000E0002017
:102D900070470146888970478181704710B50022CD
:102DA000028802F441520B884C8823438C882343C9
:102DB000CC8823430C8923434C8923438C892343A8
:102DC000CC8923431A430280838B4FF2FF74234044
:102DD00083830B8A038210BD704710B500F002F8A0
:102DE00010BD00000CB50020019000903348006831
:102DF00040F480303149086000BF3048006800F47A
:102E0000003000900198401C0190009818B901987A
:102E1000B0F5A06FF1D12948006800F4003010B17E
:102E20000120009001E0002000900098012843D18B
:102E30002348006840F010002149086008460068F7
:102E400020F0030008600846006840F002000860B7
:102E50001A48406819494860084640684860084672
:102E6000406840F4806048600846406820F47C1068
:102E700048600846406840F4E8104860084600682A
:102E800040F08070086000BF0C48006800F00070DF
:102E90000028F9D00948406820F00300074948603D
:102EA0000846406840F00200486000BF03484068A0
:102EB00000F00C000828F9D10CBD00000010024001
:102EC000002002407047000010B51348006840F031
:102ED00001001149086008464068104908400E4941
:102EE0004860084600680E4908400B4908600846DB
:102EF000006820F4802008600846406820F4FE0046
:102F000048604FF41F008860FFF767FF4FF00060D4
:102F10000449086010BD0000001002400000FFF8E6
:102F2000FFFFF6FE08ED00E010B5FDF72DFF10BD28
:102F300010B540F225510F4800F024F8C8B10D48F3
:102F400000F04AF8C4B2202C08D00B480188008851
:102F5000401C094A1080094844540AE000210748EF
:102F6000054A128881540120054908700020024951
:102F7000088010BD0038014000000020D81100205A
:102F80006304002070B502460024002300250020C1
:102F900040F66A16B14200D100BFC1F3421501F0FC
:102FA0001F03012606FA03F3012D02D1968933404F
:102FB00006E0022D02D1168A334001E0968A3340A2
:102FC0000C12012606FA04F41688344013B10CB131
:102FD000012000E0002070BD01468888C0F3080091
:102FE000704700BFFEE72DE9F04705460C46164640
:102FF0004FF0010921882289891AE38862899A1A87
:103000005143A2882389D31A67886289BA1A03FBBD
:103010001210FDF75CFAC6E90C0100221346D6E94E
:103020000C713846FDF78AFA02D14FF0000989E0A9
:1030300029882A89891AE38862899A1A5143AA88B9
:103040002B89D31A67886289BA1A03FB1210FDF71D
:103050003EFAC6E9000121882289891AAA882B89AB
:10306000D21A51432A88D21AA3882789DB1B02FB74
:103070001310FDF72CFAC6E902012189AA885143F1
:10308000A2882B8902FB13116288514322885A437C
:1030900023892F8803FB1723E28803FB0212A188F0
:1030A00079432388AF8803FB1713618903FB012051
:1030B000FDF70DFAC6E904016A886989511AE388A7
:1030C00062899A1A5143EB886A899B1A67886289D8
:1030D000BA1A03FB1210FDF7FAF9C6E906012188B6
:1030E0002289891AEB886A899A1A51436B886A89FE
:1030F0009A1AA3882789DB1B02FB1310FDF7E7F957
:10310000C6E908012189EA885143A3886A8903FB3B
:1031100012116288514322886B895A4323896F8830
:1031200003FB1723E28803FB0213A1887943278856
:10313000EA8807FB1212618902FB0130FDF7C7F92B
:10314000C6E90A014846BDE8F08701B5002007E05E
:103150000C2100BF0A1EA1F10103D9B2FAD1401C13
:1031600000998842F4D308BD0EB501214120FEF735
:1031700053FC00F01FF81020ADF8080048208DF82F
:103180000B0002A90A48FDF773FE04210846FDF76B
:103190004FFE1020009000208DF804000C208DF8C8
:1031A000050001208DF806006846FDF747FC0EBDBE
:1031B0000018014008B54FF4C060FEF7C5FB0A20B7
:1031C0008DF8000000208DF801008DF8020001202C
:1031D0008DF803006846FEF77FFB08BD08B50121A6
:1031E0006020FEF719FC0120ADF800008DF8020008
:1031F00010208DF8030069461548FDF739FE0420BC
:10320000ADF8000069461248FDF732FE0820ADF81F
:10321000000001208DF8020048208DF80300694667
:103220000B48FDF725FE4FF40050ADF800000120DB
:103230008DF8020010208DF8030069460548FDF75F
:1032400017FE4FF400510348FDF7A6FE08BD00002D
:1032500000180140001401402DE9F04F89B081466B
:103260000C460120079006A800F06AF8002852D00A
:10327000BDF81A00FDF73CF90546D4E902733A4659
:10328000FDF744F882468B46BDF81800FDF730F98B
:103290000746D4E900532A46FDF738F852465B4604
:1032A000CDE90001FCF78BFFCDE90201D4E904531D
:1032B0002A46FCF784FFCDE90401FDF726F9A9F8B9
:1032C0000000BDF81A00FDF713F90746D4E90853CA
:1032D0002A46FDF71BF882468B46BDF81800FDF71D
:1032E00007F90746D4E906532A46FDF70FF8524678
:1032F0005B46CDE90001FCF762FFCDE90201D4E9AC
:103300000A532A46FCF75BFFCDE90401FDF7FDF8FF
:10331000A9F8020001E000200790079809B0BDE875
:10332000F08F10B5FFF75AFFFFF71EFF10BD10B565
:103330000446204600F0EAFA00F0C2F810BD000092
:103340002DE9F0478CB00646002528216846FCF799
:1033500024FF00BF0AA90BA800F09EF8BDF92C00BD
:103360002DF81500BDF9281005A820F81510681CC7
:10337000C5B210214648FDF706FE08B90A2DE9DB63
:1033800010214348FDF7FFFD10B1002041490870AE
:103390000A2D7BD1BDF90070B846BDF91490CA461C
:1033A00001240EE03DF91400B84202DA3DF9147030
:1033B00005E03DF91400404501DD3DF91480601C35
:1033C000C4B20A2CEEDB012412E005A830F9140087
:1033D000484503DA05A830F9149007E005A830F94C
:1033E0001400504502DD05A830F914A0601CC4B2D9
:1033F0000A2CEADBBDF90000BDF902100844BDF952
:1034000004100844BDF906100844BDF9081008442A
:10341000BDF90A100844BDF90C100844BDF90E109E
:103420000844BDF910100844BDF912100844C01B2F
:10343000A0EB0800C0F3CF003080BDF91410BDF937
:1034400016000144BDF918000144BDF91A000144F9
:10345000BDF91C000144BDF91E000144BDF9200066
:103460000144BDF922000144BDF924000144BDF925
:1034700026000844A0EB0900A0EB0A00C0F3CF002F
:10348000708001200CB0BDE8F087FFE70020F9E76D
:1034900000180140380000202DE9F04104460D4697
:1034A0009020FFF744FF06B20120FFF74EFED02028
:1034B000FFF73DFF07B226802F80BDE8F0810000B6
:1034C00070B5002504211148FDF766FD01210F4864
:1034D000FDF764FD002414E001210C48FDF75CFDBC
:1034E00008210A48FDF74FFD0646C4F10B0006FA15
:1034F00000F0284385B201210448FDF74FFD601C10
:10350000C4B20C2CE8DB284670BD00000018014056
:103510002DE9F04FA7B04FF00009CA4600202390D4
:1035200022908346F0244FF4A075A010ADF87800E7
:10353000A810ADF87A00BDF87800ADF87C0005EB76
:10354000450081101EA8C18004EB44008010ADF836
:1035500080001EA8C1884181BDF88000ADF88400BC
:10356000BDF87A101EA8C1810120FDF747FF002693
:1035700044E04FF6E0702B462246002100900846BA
:10358000FDF766FD0FF2243B5846FCF711FEC01F05
:10359000A4EBC000C0F34F074FF4784069104FF61A
:1035A000E0735A4600903846FDF7EAFD721CC5A14B
:1035B00024A800F0DDF94FF478401022C2EB650238
:1035C00091B2009060104FF6E07324AAFDF7D8FD89
:1035D000BD48FFF7BAFD1EAA02EB860251881EAA5B
:1035E00032F82600FDF73CFE00BF1AA901EB860069
:1035F000FFF7A6FE0028F8D0701CC6B2042EB8DB78
:103600000CAA1AA91EA8FFF7EEFC00221346DDE95A
:1036100018713846FCF792FF00D110E11AA9C88949
:10362000FCF766FFCDE90001DDE90E733A46FCF7D1
:103630006DFECDE90401BDF87400FCF759FFCDE93A
:103640000001DDE90C733A46FCF760FECDE90201AA
:10365000DDE90423FCF7B3FDCDE90601DDE91073D4
:103660003A46FCF7ACFDCDE90801DDE918733A46AE
:10367000FCF7BEFECDE90A01FCF747FF1FFA80F90F
:103680001AA9C889FCF734FFCDE90001DDE91473FC
:103690003A46FCF73BFECDE90401BDF87400FCF7A7
:1036A00027FFCDE90001DDE912733A46FCF72EFE53
:1036B000CDE90201DDE90423FCF781FDCDE9060136
:1036C000DDE916733A46FCF77AFDCDE90801DDE93C
:1036D00018733A46FCF78CFECDE90A01FCF715FF9A
:1036E0001FFA80FABDF88400484504DABDF884006A
:1036F000A9EB000003E0BDF88400A0EB090080B254
:1037000023901EA8C089504504DA1EA8C089AAEBE0
:10371000000003E01EA8C089A0EB0A0080B222903E
:1037200023980A2802DC22980A2800DD87E000227C
:10373000664BDDE90C713846FCF7E8FDCDE90A017E
:10374000DDE918733A46FCF753FE614A03C20022D2
:103750005E4BDDE90E713846FCF7D8FDCDE90A0174
:10376000DDE918733A46FCF743FE594AC2E9020103
:103770000022564BDDE910713846FCF7C7FDCDE954
:103780000A01DDE918733A46FCF732FE504AC2E9F5
:10379000040100224D4BDDE912713846FCF7B6FDFD
:1037A000CDE90A01DDE918733A46FCF721FE484AE3
:1037B000C2E906010022454BDDE914713846FCF7E9
:1037C000A5FDCDE90A01DDE918733A46FCF710FEC4
:1037D0003F4AC2E9080100223C4BDDE91671384638
:1037E000FCF794FDCDE90A01DDE918733A46FCF7D0
:1037F000FFFD374AC2E90A014FF6E0702B46224628
:10380000002100900846FDF723FC0FF2C80B584634
:10381000FCF7CEFCA4EBC000C0F34F074FF4784098
:1038200069104FF6E0735A4600903846FDF7A8FC41
:103830002D48FFF78AFC012027B0BDE8F08F4FF636
:10384000E0702B462246002100900846FDF700FC60
:103850000FF2980B5846FCF7ABFCA4EBC000C0F38A
:103860004F074FF4784069104FF6E0735A460090C6
:103870003846FDF785FC0FF2840B5846FCF798FCA0
:10388000A4EBC000C0F34F074FF478400090102025
:1038900000EB65014FF6E0735A463846FDF770FCC1
:1038A0001948FFF752FC0020C6E70000546F75630B
:1038B000682043616C696272617465202E2E2E2E21
:1038C0002E2E000025640000A08601000000F03FBD
:1038D0000800002043616C69627261746520537551
:1038E0006363656400000000400D030043616C6980
:1038F0006272617465206661696C0000747279207F
:10390000616761696E00000040420F0070B50546B6
:1039100004211648FDF740FB01211448FDF73CFB4C
:1039200000241FE0C4F1070045FA00F000F0010098
:1039300020B104210D48FDF731FB03E004210B48C1
:10394000FDF72AFB0520FFF700FC01210748FDF7E2
:1039500025FB0520FFF7F9FB01210448FDF71CFBBF
:10396000601CC4B2082CDDDB70BD000000180140F3
:103970000FB4084B10B504A902AA039800F01CF874
:10398000044602A9002000F0F3F8204610BC5DF8C0
:1039900014FB0000713B000802E008C8121F08C1B8
:1039A000002AFAD170477047002001E001C1121FC0
:1039B000002AFBD1704700002DE9FF4F8BB09A46DB
:1039C0000F460546002606E025280BD052460D99E5
:1039D00090476D1C761C28780028F5D10FB0304632
:1039E000BDE8F08F0024A0460122604900E00443B6
:1039F00015F8013F203B02FA03F00842F7D128787E
:103A00002E2817D115F8010F44F004042A280ED0EF
:103A10006FF02F022878A0F1300109290AD808EBAD
:103A2000880102EB410100EB01086D1CF2E757F839
:103A3000048B6D1C287869283ED006DC0028CDD088
:103A400063280BD0642804D136E0732810D0752881
:103A50004BD052460D999047761C85E017F8040B21
:103A60008DF8000000208DF80100E946012003E0F8
:103A700057F8049B4FF0FF3061074FF0000401D46A
:103A80000AE0641C44450DDA8442FADB19F804109C
:103A90000029F6D106E0641C8442FCDB19F804100E
:103AA0000029F8D1264404E019F8010B52460D997B
:103AB0009047641EF8D257E001CF4FF00A0B002860
:103AC00002DA40422D2102E0210504D52B218DF898
:103AD0002410012103E0E10705D02021F7E70DF1D3
:103AE000200908910CE00021F9E701CF4FF00A0B03
:103AF000F9E75946FCF73AFD01F1300209F8012DCA
:103B00000028F6D1ADEB090000F1200B600701D4CD
:103B10004FF00108D84502DDA8EB0B0000E00020C3
:103B20008046002406E009A85246005D0D999047A2
:103B3000641C761C08988442F5DB04E03020524671
:103B40000D999047761CB8F10001A8F10108F5DC49
:103B500005E019F8010B52460D999047761CBBF110
:103B60000001ABF1010BF4DC6D1C34E70928010006
:103B70000A68531C0B6010707047000070B5044653
:103B80000D46607801232A4604F1300100F0EEFD75
:103B900008B1032070BD94F82E1294F82F0241EA68
:103BA00000204AF65521884201D00220F2E794F81D
:103BB0006900010694F8680041EA004194F8670042
:103BC00041EA002094F86610084320F07F400E4937
:103BD000884201D10020DDE794F88500010694F8C1
:103BE000840041EA004194F8830041EA002094F8FF
:103BF0008210084320F07F400349884201D1002011
:103C0000C8E70120C6E7000046415400024600E034
:103C1000521C107810B110788842F9D11078704792
:103C20002DE9F74F88B00898006801900198007856
:103C300030380790079809280AD8019840783A2820
:103C400006D10198801C019008990198086001E054
:103C500000200790079818B10B200BB0BDE8F08F3B
:103C6000D049079851F82040099804600CB90C20FD
:103C7000F3E7207878B1607800F0C2FD804608F064
:103C8000010040B90A9820B108F0040008B10A20E8
:103C9000E3E70020E1E7002020700798607060787B
:103CA00000F053FD804608F0010008B10320D4E77E
:103CB0000A9820B108F0040008B10A20CDE74FF0BF
:103CC000000B59462046FFF759FF054600BF012D5E
:103CD00021D14FF0000ABAF1000F03D0AAF1010080
:103CE00000F0FF0A4FF4DF7000EB0A1104F130001E
:103CF0000F18387978B1F87A0106B87A41EA0041AC
:103D0000787A41EA0020397A40EA010B5946204688
:103D1000FFF734FF0546032D01D101209DE70DB1CA
:103D20000D209AE73B20015D94F83C0041EA002019
:103D3000B0F5007F01D00D208FE74620015D94F89B
:103D4000470041EA0029B9F1000F0ED194F857005D
:103D5000010694F8560041EA004194F8550041EA02
:103D6000002094F8541040EA0109C4F81C90402047
:103D7000065DE670012E03D0022E01D00D206CE707
:103D800009FB06F93D20005D0646A07016B1701EC5
:103D9000304008B10D2060E74120015D94F84200F9
:103DA00041EA00202081207A00F00F0008B10D20A8
:103DB00053E74320015D94F8440041EA0020069057
:103DC000069870B994F85300010694F8520041EA3D
:103DD000004194F8510041EA002094F85010084343
:103DE00006903E20015D94F83F0041EA00200290D9
:103DF000029808B90D2030E702984844218900EB69
:103E000011100590DDE90501814201D20D2024E762
:103E1000DDE90510401AA178B0FBF1F00490049898
:103E200008B90D2019E7012540F6F671049888427B
:103E300000D302254FF6F6710498884200D303257B
:103E40000498801CA06105985844A06202985844C8
:103E50002062032D16D1208908B10D20FDE694F8CB
:103E60005F00010694F85E0041EA004194F85D00AD
:103E700041EA002094F85C1008436062A069800069
:103E8000039014E0208908B90D20E6E6206A484432
:103E90006062022D02D1A069400007E0207E00F0A0
:103EA0000100A16901EB410100EB51000390E169C0
:103EB000039800F2FF10B1EB502F01D20D20CCE699
:103EC0004FF0FF3020610020E060032D5CD1607175
:103ED00094F8601094F8610041EA00205844606151
:103EE0006078012304F13001626900F03FFCE8BB17
:103EF00094F82E1294F82F0241EA00204AF6552138
:103F0000884241D13320005D01063220005D41EA44
:103F100000413120005D41EA002094F83010084350
:103F20002149884230D194F81702010694F816020C
:103F300041EA004194F8150241EA002094F8141275
:103F400008431A4988421FD194F81F02010694F8C9
:103F50001E0241EA004194F81D0241EA002094F853
:103F60001C120843E06094F81B0200E00CE001061C
:103F700094F81A0241EA004194F8190241EA00203B
:103F800094F8181208432061257009480088401CE5
:103F900080B207490880E0800020E062207100BF05
:103FA0005BE600006404002052526141727241617C
:103FB000680400200246891E9069801E884201D84C
:103FC000002070479378906A01FB0300F9E7000036
:103FD000F0B50346087820F04000401E00EB800753
:103FE00007EBC0060022012400BF1148805C085C7A
:103FF0000F4FBF5C0F447F7840EA07250CB10020CB
:10400000F0BD4FF6FF70854201D00020F8E7501C4C
:1040100002460D28E9D3087800F0400028B124B109
:1040200033F8160008B10020EAE70120E8E70000B5
:10403000885B00082DE9F04704468946B9F1000F76
:1040400006D1E76817B1A069B84211D801270FE07F
:104050004946204601F008F80646022E02D2012009
:10406000BDE8F087A069B04201D93046F8E74F4675
:104070003D4600BF6D1CA069A84204D80225BD4280
:1040800001D90020ECE72946204600F0EDFF064666
:1040900006B909E0701C08B1012E01D13046DFE7F6
:1040A000BD42E7D10020DBE700BF6FF07042294638
:1040B000204601F018F98046B8F1000F08D1B9F197
:1040C000000F05D02A464946204601F00CF98046EB
:1040D000B8F1000F09D1E5602069401C68B1206982
:1040E000401E20610120607107E0B8F1010F02D18C
:1040F0004FF0FF3000E0012005462846B0E7000001
:104100002DE9F34F83B0814604980068019002E0E6
:104110000198401C0190019800782F28F8D0019850
:1041200000785C28F4D0D9F81CA000252F4600BFE9
:1041300038467F1C01990C5C202C03DB2F2C01D00E
:104140005C2C00D113E0FF2D03D3062005B0BDE8A1
:10415000F08F802C06DA21466FA0FFF757FD08B1DB
:104160000620F3E728466D1C2AF81040E0E700BF60
:104170000198C11904980160202C01DA042000E0A4
:104180000020064608E0681E3AF81040202C02D0B5
:104190002E2C00D002E06D1E002DF4D100BF0DB911
:1041A0000620D3E700202AF815000B222021D9F899
:1041B000180001F055F8002700E07F1C3AF81700BE
:1041C0002028FAD03AF817002E28F6D00FB146F082
:1041D000030600E06D1E25B1681E3AF810002E2877
:1041E000F8D14FF00008CDF808804FF0080B00BF61
:1041F00038467F1C3AF8104004B95DE0202C03D00B
:104200002E2C04D1AF4202D046F00306F0E702980C
:10421000584501D2AF4216D1BBF10B0F02D146F087
:10422000030649E0AF4201D046F00306AF4200D991
:1042300042E02F46082002904FF00B0B4FEA8860B7
:104240004FEA1068D4E7802C01DB46F00206FF2C11
:1042500011DDABF101000299884204D846F0030653
:10426000CDF808B0C4E72212D9F818300298411CE2
:1042700002911A5419E024B121462AA0FFF7C6FC86
:1042800018B15F2446F003060FE0412C04DB5A2CE2
:1042900002DC48F0020808E0612C06DB7A2C04DC22
:1042A00048F00108A4F1200084B2D9F8183002982F
:1042B000411C02911C549BE700BFD9F818000078FC
:1042C000E52803D10520D9F818100870BBF1080FB4
:1042D00003D14FEA88604FEA106808F00C000C2800
:1042E00003D008F00300032801D146F0020606F0CF
:1042F000020058B908F00300012801D146F0100669
:1043000008F00C00042801D146F00806D9F818007E
:10431000C67200201AE70000222A3A3C3E3F7C7F0A
:10432000000000002B2C3B3D5B5D00002DE9F047B9
:1043300004460021204600F0BAF9074617B1384676
:10434000BDE8F0874FF0FF09CA4600BF2169206829
:1043500000F090FF074607B154E065692E780EB96A
:1043600004274FE0E87A00F03F08E52E05D008F07A
:10437000080028B1B8F10F0F02D04FF0FF093AE062
:10438000B8F10F0F1CD1E069A0B306F0400030B1C6
:1043900095F80DA026F04006B146E08820844E45F1
:1043A0000AD1687B504507D12946E069FFF710FE26
:1043B00010B1A9F1010000E0FF2000F0FF091AE0B0
:1043C000B9F1000F05D1284601F05CF8504500D145
:1043D00018E04FF0FF094FF6FF702084A069C07A03
:1043E00000F0010030B90B222846A16900F018FF47
:1043F00000B907E0FFE70021204600F006F8074675
:10440000002FA3D000BF38469AE72DE9F0410446BB
:10441000884600BFE088401C86B20EB1206910B902
:104420000420BDE8F08106F00F0000286FD120695C
:10443000401C2061E06828B920680089B04266DC31
:104440000420EEE720688078401E00EA161000285D
:104450005DD1E168206800F007FE0546012D01D816
:104460000220DEE7681C08B90120DAE720688069CD
:10447000A84246D8B8F1000F01D10420D1E7E16885
:104480002068FFF7D7FD05460DB90720C9E7012DC4
:1044900001D10220C5E7681C08B90120C1E700214D
:1044A000206800F0E7FE08B10120BAE7216801F1B9
:1044B00030004FF40072002100F0D2FE294620683F
:1044C000FFF778FD2168C862002710E0012021680D
:1044D00008710021206800F0CDFE08B10120A0E79E
:1044E0002068C06A401C2168C862781CC7B2206876
:1044F0008078B842EADC2068C06AC01B2168C862C4
:1045000000BFE56029462068FFF754FD2061E68082
:104510002068303006F00F0100EB41106061002090
:104520007FE72DE9F04F85B00446D4F81880D4F821
:104530001CB00C22414601A800F085FE00BF9DF88A
:104540000F0000F0010030B3002088F80B00E0619C
:1045500001270DE03B465A4601A9404600F025FDE3
:104560002046FFF7E3FE054605B103E0781C87B25D
:10457000642FEFDB00BF642F03D1072005B0BDE837
:10458000F08F042D01D02846F8E79DF80F0088F839
:104590000B00C4F81CB09DF80F0000F0020070B1D1
:1045A000002601E0701C86B23BF816000028F9D105
:1045B00006F119000D2190FBF1F086B200E0012612
:1045C0000021204600F073F805460DB12846D5E7D6
:1045D00000200746049000BF2169206800F04AFED1
:1045E000054605B119E0606990F80090B9F1E50F52
:1045F00002D0B9F1000F08D10FB9E0880490781CFF
:1046000080B20746B04201D107E0002701212046D1
:10461000FFF7FBFE0546002DDED000BF4DBB012E8F
:1046200027DD2046049900F042F805460DBBA0693D
:1046300000F028FF0090701E86B200BF216920683C
:1046400000F018FE054605B112E0F2B26169E069BA
:10465000009B00F01BFC012021680871002120460E
:10466000FFF7D3FE05461DB9701E80B2061EE5D1C8
:1046700000BFD5B92169206800F0FCFD0546A5B949
:10468000D4F814A020220021504600F0E9FD0B22AE
:104690005046A16900F0D7FDA069C07A00F018006B
:1046A0008AF80C00012021680871284666E72DE988
:1046B000F04104460E46E680A568012D03D020682F
:1046C0008069A84202D80220BDE8F0812DB9206897
:1046D0000078032801D12068456A65B9E560206843
:1046E0000089B04201DC0220EEE72068406A00EB5E
:1046F0001610206120E020688078070112E029462A
:10470000206800F0B1FC0546681C08B90120DBE711
:10471000022D03D320688069A84201D80220D3E784
:10472000F01B86B2BE42EADAE56029462068FFF750
:1047300041FC00EB161020612068303006F00F01BC
:1047400000EB411060610020BEE770B505460DB179
:10475000012070BDFDF7F4FC04460CB10120F8E720
:104760000020F6E703460020704700002DE9F041E5
:1047700080460D4614461E4605F00300E8B10027AA
:1047800018E0780200EB44214FF400721B48FDF75B
:104790009DFEFDF7B3FF00BFFDF7C3FC0028FBD172
:1047A0004FF4007215492846FBF7DEFC05F500754D
:1047B000781CC7B2B742E4DB1DE0012E0EDD6102BA
:1047C00033464FF400722846FDF7EEFEFDF796FFE4
:1047D00000BFFDF7A6FC0028FBD10CE061024FF4FE
:1047E00000722846FDF772FEFDF788FF00BFFDF757
:1047F00098FC0028FBD10020BDE8F081CC130020FC
:1048000001460020704700002DE9F04180460D462A
:1048100014461E4605F00300E8B1002718E04FF4E7
:10482000007229461C48FBF79FFC780200EB4421EC
:104830004FF400721848FDF799FFFDF779FF00BFAC
:10484000FDF76FFC0028FBD105F50075781CC7B299
:10485000B742E4DB1DE0012E0EDD610233464FF46A
:1048600000722846FDF7F0FFFDF762FF00BFFDF77D
:1048700058FC0028FBD10CE061024FF4007228467E
:10488000FDF774FFFDF754FF00BFFDF74AFC002859
:10489000FBD10020BDE8F081CC13002070B50446A8
:1048A000204600F096FA05460DB900202060284603
:1048B00070BD2DE9F04704460E46A188206800F03F
:1048C00056FE8246BAF1000F02D05046BDE8F0878E
:1048D000A07900F0800008B10220F7E7E068B0425C
:1048E00004D2A07900F0020000B9E668D4F808907C
:1048F0004FF00008C4F80880002E77D02068807838
:104900004702B9F1000F11D0701EB0FBF7F1A9F109
:104910000100B0FBF7F0814208D3A9F10100791E34
:104920008843A060A068361A656918E02569ADB9AA
:1049300000212068FFF77EFB0546012D05D1A079F7
:1049400040F08000A0710220C0E7681C28B9A0795F
:1049500040F08000A0710120B8E725616561002D5D
:1049600044D029E0A07900F0020038B1294620683F
:10497000FFF760FB054635B93E461FE02946206833
:1049800000F072FB0546681C28B9A07940F0800051
:10499000A07101209AE7012D03D920688069A842FF
:1049A00005D8A07940F08000A07102208EE76561F3
:1049B000A0683844A060F61BBE42D3D800BFA068F0
:1049C0003044A060C6F3080068B129462068FFF7AC
:1049D000F1FA8046B8F1000F06D1A07940F08000CE
:1049E000A071022072E701E008EB56282089C0F38D
:1049F000080050B3A069404527D0A07900F04000DE
:104A000090B121684878012304F12401A269FFF7DD
:104A1000FBFE28B1A07940F08000A071012055E78D
:104A2000A07920F04000A071216848780123424617
:104A300004F12401FFF79AFE28B1A07940F080002C
:104A4000A071012042E7C4F81880D4E9020188422D
:104A500005D9A068E060A07940F02000A071504620
:104A600034E700000246012A01DB0B2070470748AB
:104A700050F822300BB10020187009B100200870E6
:104A8000024840F822100020F0E7000064040020F3
:104A90002DE9F743ADF50C7D05461646002028604C
:104AA00006F01F0626F0010283A98DA8FFF7B8F8CB
:104AB000074680A88990CDF828D227B983A88D9978
:104AC00000F024FA0746889C0FB904B9062706F0BF
:104AD0001C00002858D04FB1042F03D183A8FFF742
:104AE00020FD074646F00806889C09E0E07A00F0C1
:104AF000110008B1072703E006F0040000B1082701
:104B0000002F40D106F0080000283CD000F01EFB2A
:104B1000804684F80E804FEA1821E1734FEA18416D
:104B200021744FEA186161740020E072207700213F
:104B30006177A177E177A17EE07E41EA0021227DC5
:104B4000607D42EA002041EA00490020A076002171
:104B5000E17620756175012083990871B9F1000F24
:104B600011D08398D0F82C804946839800F056FCE9
:104B7000074647B9A9F101008399C8604146839867
:104B800000F078FB07460EE06FB9E07A00F0100005
:104B900008B1042707E006F0020020B1E07A00F037
:104BA000010000B1072747B906F0080008B146F038
:104BB00020068398C06AE8612C62F7B9AE71A17EC5
:104BC000E07E41EA0021227D607D42EA002041EA48
:104BD00000402861E07F0106A07F41EA0041607F3C
:104BE00041EA0020217F0843E8600020A860A86116
:104BF000839828608398C088A88038460DF50F7D7B
:104C0000BDE8F0832DE9FF4F83B0044615469A4670
:104C1000DDF810B00020CAF80000A188206800F07C
:104C2000A6FC0290029818B1029807B0BDE8F08F78
:104C3000A07900F0800008B10220F6E7A07900F02A
:104C4000010008B90720F0E7D4E90210401A0090EB
:104C50000098854200D9009DB6E02089C0F3080085
:104C600000287DD120688078401EA16800EA51208C
:104C700000F0FF09B9F1000F1DD1A06810B920693B
:104C8000019004E06169206800F0EEF9019001985C
:104C9000022805D2A07940F08000A0710220C4E76C
:104CA0000198401C28B9A07940F08000A071012033
:104CB000BBE70198606161692068FFF77BF90646F0
:104CC0002EB9A07940F08000A0710220ADE74E44DB
:104CD0004FEA5528B8F1000F2DD009EB08002168E4
:104CE0008978884203D920688078A0EB090808F009
:104CF000FF032168487832465946FFF737FD28B14F
:104D0000A07940F08000A07101208EE7A07900F02A
:104D1000400068B1A069801B404509D2A169891B88
:104D20000BEB41204FF4007204F1240100F08BFAE8
:104D30004FEA48273EE0A069B04227D0A07900F0B2
:104D40004000A0B121684878012304F12401A26940
:104D5000FFF75AFD38B1A07940F08000A07100E063
:104D600015E0012061E7A07920F04000A0712168E2
:104D700048780123324604F12401FFF7F7FC28B1FB
:104D8000A07940F08000A07101204EE7A661208943
:104D9000C0F30800C0F50077AF4200D92F46208944
:104DA000C0F3080204F1240011183A46584600F0F6
:104DB0004AFA00BFBB44A0683844A060DAF800009B
:104DC0003844CAF80000ED1B002D7FF446AF0020E8
:104DD0002BE72DE9F0410446A188206800F0C7FBCD
:104DE0000746002F4FD1A07900F0200000284AD0BC
:104DF000A07900F0400078B121684878012304F1DF
:104E00002401A269FFF700FD10B10120BDE8F08187
:104E1000A07920F04000A071E169206800F02AFA32
:104E20000746002F2FD1256AE87A40F02000E8726B
:104E3000207B2877A089010A6977E068010CA977AF
:104E4000E068010EE977207CA876208A010AE976DD
:104E50002069000C28752069010E697500F076F94B
:104E60000646AE75310AE975310C2976310E697640
:104E7000A07920F02000A07101202168087120682D
:104E800000F010FB07463846C0E70000F0B50446C6
:104E90001D464D730F27CF7200270F738F76BC46C8
:104EA00081F81BC0571E07EB870C0CEBC7060027C9
:104EB00038463B4600BF4FF6FF77B84203D037462F
:104EC000761C34F81700DFF840C01CF803C001F866
:104ED0000C000712DFF830C01CF803C08C448CF8BB
:104EE000017008B94FF6FF705F1C3B460D2FE2D3EF
:104EF0004FF6FF77B84202D034F816700FB942F07F
:104F000040020A70F0BD0000885B00082DE9F34103
:104F10000446019800782F2803D0019800785C2877
:104F200002D10198401C01900020A06001980078F7
:104F3000202807D200212046FFF7B9FB06460020B3
:104F400060612FE000BF01A92046FFF7D9F80646AF
:104F500006B126E02046FFF7E9F90646A069C77AC0
:104F600046B1042E00D01CE000BF07F0040000B9D9
:104F7000052616E007F0040000B112E06569E87A42
:104F800000F0100008B905260BE0A97EE87E41EA92
:104F900000212A7D687D42EA002041EA0040A060AD
:104FA000D1E700BF3046BDE8FC812DE9FC4707464C
:104FB0008A4690461C460B225146384600F043F97B
:104FC000052C0BDD00BF601000EBC43138F8022B5C
:104FD000881884B2B8F800000028F4D1072600BF72
:104FE0002046E11704EB11710911A4EB01113031D6
:104FF00001F0FF09B9F1390F03DD09F1070000F0F5
:10500000FF093046761E0DF800902046E11704EBAC
:105010001171C1F30F14002CE2D17E200DF80600AF
:1050200000250BE0785D812807DB785DFE2804DC35
:10503000701EA84200D106E06D1C6D1CB54202D264
:10504000785D2028EED100BF00BF082E04D2304684
:10505000761C1DF8000000E0202029466D1C7854C5
:10506000082DF2D3BDE8FC872DE9F04105460C463A
:10507000022C02D3A869A04202D80120BDE8F08129
:105080002878012804D002282CD003285AD13DE0EA
:10509000274607EB5707286A00EB5721284600F000
:1050A000E9F800B14EE0C7F3080105F1300010F84F
:1050B00001807F1C286A00EB5721284600F0DAF8AF
:1050C00000B13FE0C7F3080105F13000405C48EA59
:1050D000002804F0010010B14FEA1810CEE7C8F321
:1050E0000B00CBE7286A00EB1421284600F0C2F839
:1050F00000B127E040F2FF1000EA440105F1300062
:105100000E183078717840EA0120B7E7286A00EB82
:10511000D411284600F0AEF800B113E040F2FF10C1
:1051200000EA840105F130000E18F0780006B1782D
:1051300040EA0140717840EA01203178084320F0CC
:1051400070409BE700BF4FF0FF3097E700207047AB
:1051500008B5FCF787FBFDF7E1FCFCF789FBFDF7E1
:10516000E3FE0120FCF74AF94FF2DE704FF4A07322
:10517000F022002100900846FBF76AFF4FF4FC6024
:105180004FF61F0320A2C82100901420FCF71FF83F
:105190001F204FF6E0731EA2C82100906420FCF788
:1051A00016F84FF4784047F6FF731BA2C821009011
:1051B000B420FCF70CF84FF4FC603C231A46E621BF
:1051C00000900A20FBF744FF1F203C231A46E621EB
:1051D00000905A20FBF73CFF4FF478403C231A46DE
:1051E000E6210090AA20FBF733FF0BE00B48007884
:1051F000012807D1FBF790FA0446FCF7B1FB002029
:1052000006490870F2E70000475245454E0000008D
:10521000424C554500000000524544003800002033
:10522000F0B503461C460D46002000BF161EA2F135
:10523000010207D014F8017B15F801CBA7EB0C068F
:10524000301EF3D0F0BD70B503460C4603E014F8F1
:10525000015B03F8015B151EA2F10102F7D170BDDD
:1052600030B5034601E003F8011B141EA2F1010250
:10527000F9D130BD2DE9F04104460D46E66AAE4253
:105280002FD0207908B360780123324604F1300131
:10529000FFF7BAFA10B10120BDE8F08100202071BB
:1052A000D4E907100844B0420FD9E7780AE0E06972
:1052B000064460780123324604F13001FFF7A4FA76
:1052C000781EC7B2012FF2DC00BF55B16078012310
:1052D0002A4604F13001FFF749FA08B10120DBE763
:1052E000E5620020D8E72DE9F04705460E4617464F
:1052F000022E02D3A869B04202D84FF002088AE019
:105300002878012804D0022841D003287DD154E018
:10531000B14609EB5909286A00EB59212846FFF7E5
:10532000A9FF8046B8F1000F00D071E0C9F3080171
:1053300005F130000C1806F0010020B1F9B2207818
:1053400061F31F1000E03846207009F101090120C7
:105350002871286A00EB59212846FFF78BFF804609
:10536000B8F1000F00D053E0C9F3080105F1300097
:105370000C1806F0010010B1C7F3071005E0207803
:1053800000F0F000C7F303210843207040E0286AD2
:1053900000EB16212846FFF76DFF8046B8F1000F9D
:1053A00000D035E040F2FF1000EA460105F1300080
:1053B0000C182770380A60702AE0286A00EBD611B2
:1053C0002846FFF757FF8046B8F1000F00D01FE0D6
:1053D00040F2FF1000EA860105F130000C18E07879
:1053E0000006A17840EA0140617840EA0120217876
:1053F000084300F0704007432770380A6070380C8B
:10540000A070380EE07003E0FFE74FF0020800BF25
:1054100000BF012028714046BDE8F0872DE9F0412A
:1054200004460E46022E02D3A069B04201D80227DC
:1054300025E000271FE031462046FFF715FE054610
:1054400005B91BE0012D01D1022717E0681C08B93E
:10545000012713E0002231462046FFF744FF0746AC
:1054600007B10BE02069401C20B12069401C20617D
:10547000012060712E46A069B042DCD800BF3846DA
:10548000BDE8F08130B5014600200B2200BF43107B
:1054900003EBC01411F8015B6319D8B2531E1A1E36
:1054A000F5D130BD70B5044600212046FFF7E2FE7D
:1054B0000546002D59D1207803284FD16079002866
:1054C0004CD00020E0624FF40072002104F1300063
:1054D000FFF7C6FE552184F82E12AA2184F82F1258
:1054E000522084F8300052213120015561213220B0
:1054F0000155412133200155722184F8141284F89A
:105500001512412184F81612612184F81712217CAA
:1055100084F81812208A010A84F819122069010CF3
:1055200084F81A122069010E84F81B12217B84F87A
:105530001C12A089010A84F81D12E068010C84F88D
:105540001E12E068010E84F81F126078012304F136
:1055500030016269FFF758F900206071607800221D
:105560001146FFF7FFF800B10125284670BD70B560
:1055700004460D4624B1207810B1E088A84201D03D
:10558000092070BD6078FFF73BF900F0010008B119
:105590000320F6E70020F4E7000000000000000010
:1055A0000000000000000000000000183C3C3C1817
:1055B0001800181800000000000000666666000071
:1055C00000000000000000000000006C6CFE6C6C2D
:1055D0006CFE6C6C000000000018183C66060C188D
:1055E0003060663C1818000000000E1B5B6E30181F
:1055F0000C76DAD8700000000000001C36361C065D
:10560000F66666DC000000000000001818180000B4
:1056100000000000000000000000003018180C0C12
:105620000C0C0C18183000000000000C181830305A
:1056300030303018180C000000000000006C38FEFC
:10564000386C000000000000000000000018187E08
:10565000181800000000000000000000000000001A
:105660000000383830180000000000000000007E04
:10567000000000000000000000000000000000002A
:105680000000383800000000000000606030301872
:10569000180C0C060600000000000078CCECECCCE6
:1056A000DCDCCC780000000000000030383E3030F8
:1056B00030303030000000000000003C6666603092
:1056C000180C067E000000000000003C6666603892
:1056D0006066663C000000000000000C0C6C6C6C06
:1056E00066FE6060000000000000007E0606063EC8
:1056F0006060301E0000000000000038180C3E669C
:105700006666663C000000000000007E60303018D5
:10571000180C0C0C000000000000003C66666E3C9B
:105720007666663C000000000000003C6666666627
:105730007C30181C00000000000000000038380019
:105740000000383800000000000000000038380079
:1057500000003838301800000000006030180C06D7
:105760000C183060000000000000000000007E0007
:105770007E00000000000000000000060C183060F1
:1057800030180C06000000000000003C666630186F
:1057900018001818000000000000007EC3C3F3DBEF
:1057A000DBF303FE00000000000000183C666666A4
:1057B0007E666666000000000000003E6666663E8B
:1057C0006666663E000000000000003C6666060655
:1057D0000666663C000000000000001E3666666635
:1057E0006666361E000000000000007E0606063ECB
:1057F0000606067E000000000000007E0606063E4B
:1058000006060606000000000000003C666606066C
:105810007666667C00000000000000666666667EB4
:1058200066666666000000000000003C1818181844
:105830001818183C00000000000000606060606004
:105840006066663C00000000000000666636361E9A
:1058500036366666000000000000000606060606F2
:105860000606067E00000000000000C6C6EED6D682
:10587000D6C6C6C600000000000000C6C6CEDEF6D2
:10588000E6C6C6C6000000000000003C666666660C
:105890006666663C000000000000003E6666663EEC
:1058A00006060606000000000000003C666666660C
:1058B0006666663C306000000000003E6666663E3C
:1058C00036666666000000000000003C66060C18A4
:1058D0003060663C000000000000007E18181818B8
:1058E000181818180000000000000066666666665A
:1058F0006666663C0000000000000066666666663C
:1059000066663C1800000000000000C6C6C6D6D679
:10591000D66C6C6C0000000000000066662C181845
:105920003466666600000000000000666666663C3D
:1059300018181818000000000000007E6060301881
:105940000C06067E000000000000003C0C0C0C0C55
:105950000C0C0C0C0C0C3C0000000006060C0C1887
:1059600018303060600000000000003C3030303003
:105970003030303030303C0000183C660000000011
:105980000000000000000000000000000000000017
:10599000000000000000FF00001C183000000000A4
:1059A000000000000000000000000000003C6060FB
:1059B0007C66667C0000000000000006063E66660D
:1059C0006666663E0000000000000000003C6606BF
:1059D0000606663C0000000000000060607C666611
:1059E0006666667C0000000000000000003C666601
:1059F0007E06063C00000000000000780C0C0C7EC7
:105A00000C0C0C0C0000000000000000007C66661E
:105A10006666667C60603E0000000006063E6666C4
:105A2000666666660000000000001818001E181860
:105A30001818187E0000000000003030003C3030A4
:105A40003030303030301E0000000006066666360A
:105A50001E366666000000000000001E18181818A8
:105A60001818187E0000000000000000007ED6D646
:105A7000D6D6D6C60000000000000000003E6666D4
:105A8000666666660000000000000000003C666676
:105A90006666663C0000000000000000003E66668E
:105AA0006666663E0606060000000000007C66662C
:105AB0006666667C60606000000000000066760E2E
:105AC000060606060000000000000000007C060636
:105AD0003C60603E000000000000000C0C7E0C0CDE
