:020000040800F2
:10000000400400204501000831120008070B0008D9
:100010002D120008B5060008951800080000000021
:10002000000000000000000000000000451700086C
:100030000D07000800000000B91200083118000880
:100040005F0100085F0100085F0100085F01000810
:100050005F0100085F0100085F0100085F01000800
:100060005F0100085F010008350700085F01000814
:100070005F0100085F0100085F0100085F010008E0
:100080005F0100085F0100085F0100085F010008D0
:100090005F0100085F0100085F0100085F010008C0
:1000A0005F0100085F0100085F0100085F010008B0
:1000B0005F0100085F0100085F0100085F010008A0
:1000C0005F0100085F0100085F0100085F01000890
:1000D0005F0100085F0100085F0100085F01000880
:1000E0005F0100085F0100085F0100085F01000870
:1000F0005F0100085F0100085F0100085F01000860
:100100005F0100085F0100085F0100085F0100084F
:100110005F0100085F0100085F0100085F0100083F
:100120005F0100085F0100085F0100085F0100082F
:10013000DFF80CD000F0ACFA00480047C1230008FB
:10014000400400200648804706480047FEE7FEE7D7
:10015000FEE7FEE7FEE7FEE7FEE7FEE7FEE7FEE777
:100160003518000831010008D2B201E000F8012B77
:10017000491EFBD270470022F6E710B513460A4627
:1001800004461946FFF7F0FF204610BD421C10F848
:10019000011B0029FBD1801A70472DE9FE4F8046D4
:1001A00081EA0300C00F0C46009021F0004123F0CB
:1001B0000045B8EB0200A94105D2404621469046D1
:1001C0001C460B46024623F00040104347D0270D43
:1001D000C7F30A00C3F30A510290401A0190402865
:1001E0006BDAC3F3130040F4801B0098924620B1F1
:1001F0000023D2EB030A63EB0B0B01985946C0F1C5
:100200004002504600F0B6F906460D4650465946A3
:10021000019A00F0CEF910EB08006141002487EA52
:10022000115284EAE7731A4340D0009A62B3019AEC
:10023000012A4FEA075215DC001B61EB02014FF067
:10024000004202EA0752CDE90042001C41F580114C
:1002500032462B4600F0CEF903B0BDE8F08F4046A1
:100260002146F9E7001B61EB0201001C41F58013F8
:1002700000185B412018A2F5001747EB030140EA84
:10028000D570B6196D4111E06D084FEA360645EAA2
:10029000C0754FEA0752001B61EB0201001C41F5DB
:1002A000801149084FEA30000019514132462B466F
:1002B00003B0BDE8F04F00F08EB900980122400075
:1002C0000023D0EB020263EBE073009821464FEA73
:1002D000E074B8EB000061EB0401E9E783F0004350
:1002E0005BE781F0004158E72DE9FE4F81EA030406
:1002F00004F0004421F0004100944FF0000B23F083
:10030000004350EA01045ED052EA03045BD0C3F319
:100310000A54C1F30A552C44A4F2F3340194A0FB0F
:100320000254C1F3130141F48011C3F3130343F4E6
:10033000801301FB024400FB034E840A970A44EA3F
:10034000815447EA8357A4FB076802958D0A05FB91
:1003500007854FEA932C04FB0C542705029D4FEAB6
:10036000065847EA1637B5EB08056EEB070C870E03
:10037000920E47EA811742EA8312A7FB0201B6EB0D
:100380000B0164EB00042B0D43EA0C335E1844EBC5
:100390001C50DA465146E7FB0201C5F313044FEA4D
:1003A0000B3343EA14534FEA0432019C43EA060339
:1003B000A4F10C040294009CCDE900B400F01AF9F9
:1003C00003B0BDE8F08F00200146F9E72DE9F04DBC
:1003D00081EA030404F0004B21F0004514464FF07D
:1003E000000A23F0004150EA050220D054EA01023D
:1003F0001DD0C5F30A570246C5F31303C1F313001A
:10040000C1F30A5640F4801543F48013A7EB0608A5
:10041000101BD64608F2FD3873EB050002D308F135
:10042000010801E092185B41B8F1000F03DA0020E7
:100430000146BDE8F08D00204FF480110646844649
:100440000EE0171B73EB050705D3121B63EB0503C7
:1004500006434CEA010C49084FEA300092185B4110
:1004600050EA0107EDD152EA030012D082EA0400FB
:1004700083EA0501084305D0101BAB4106D20122D7
:10048000002306E000224FF0004302E06FF001027B
:1004900053101AEB06004CEB085110EB0A0041EB2D
:1004A0000B01BDE8F04D00F096B80EB5C10F80EA23
:1004B000E0700844CA07002140F233438DE80E0083
:1004C0000A460B4600F096F803B000BD0EB540F2A8
:1004D000334102910021CDE900110A460B4600F09C
:1004E00089F803B000BDC1F30A5210B5C1F313017E
:1004F00040F2FF3341F480119A4201DA002010BD2E
:1005000040F233439A42A2F2334203DC524200F0FB
:1005100040F810BD904010BD30B5041E71F10004CC
:1005200004DB4FF00044404264EB0101141E73F100
:10053000000405DB1C464FF00043524263EB04030A
:100540008B4208BF824230BD30B50B4601460020C9
:100550002022012409E021FA02F59D4205D303FA85
:1005600002F5491B04FA02F52844151EA2F1010206
:10057000F1DC30BD202A04DB203A00FA02F1002031
:1005800070479140C2F1200320FA03F319439040D1
:100590007047202A04DB203A21FA02F0002170473C
:1005A00021FA02F3D040C2F12002914008431946DB
:1005B0007047202A06DBCB17203A41FA02F043EAC3
:1005C000E07306E041FA02F3D040C2F1200291400C
:1005D00008431946704710B5141E73F1000408DA79
:1005E000401C41F1000192185B411A4301D120F0F7
:1005F000010010BD2DE9F04D92469B4611B1B1FAB4
:1006000081F202E0B0FA80F220329046FFF7B2FFAA
:1006100004460F4640EA0A0041EA0B0153465A4697
:10062000084313D0114653EA010019D0C8F1400223
:100630005046FFF7AEFF05460E4650465946424625
:10064000FFF798FF084305D0012004E02046394613
:10065000BDE8F08D0020054346EAE0762C433743A1
:100660000A986305E40AA0EB08000022FD0A44EAA8
:1006700047540A3002D500200146E9E70105101968
:100680006941DDE9084500196941BDE8F04DA2E77F
:10069000064C074D06E0E06840F0010394E80700CF
:1006A00098471034AC42F6D3FFF746FD402A0008C5
:1006B000602A000800BFFEE708B51249684601F04D
:1006C00025FAF0B1BDF80210BDF800004FF47842F1
:1006D00000F094FABDF80200E82812DDBDF802002F
:1006E000B0F58D7F0DDABDF800005F2809DDBDF89B
:1006F0000000912805DA0448006880F002000249F1
:10070000086008BD080000200C0C0140704701B5CE
:1007100002E00098401E009000980028F9D108BD22
:1007200001B502E00098401E009000980028F9D121
:1007300008BD000010B5102000F010F828B101200D
:1007400002490870102000F003F810BD38000020A6
:100750000149086070470000140401400146002070
:100760000022074B1B6803EA0102054B14331B6888
:100770000B4013B10AB1012000E0002070470000D7
:1007800000040140002123498279002A3AD00A4618
:10079000126803689A430B461A600A1D12680368C0
:1007A0009A430B1D1A60027911440A6803681A43C0
:1007B0000A60184A0832126803689A43154B0833D6
:1007C0001A601A1D126803689A43124B0C331A60A0
:1007D0004279102A0ED11A1F126803681A430D4B72
:1007E00008331A601A1D126803681A43094B0C3348
:1007F0001A600DE00749427911440A6803681A43F8
:100800000A6005E0027911440A6803689A430A60A5
:10081000704700000004014051B18200A2F1C042C3
:10082000126842F001038200A2F1C042136009E0A5
:100830008200A2F1C0421268034B1A408300A3F168
:10084000C0431A6070470000FEFF0F00D0E901129C
:100850001143C2681143026911434269114382691D
:100860001143C2691143026A1143426A1143826A09
:100870001143C26A1143026B114302689200A2F154
:10088000C0421160816808290BD101688900A1F17B
:10089000C041096841F0400201688900A1F1C041EE
:1008A0000A60416B0968426B526841EA0211426B6F
:1008B000926841EA0221426B928941EA0241426B0D
:1008C000128A41EA0251426B127D41EA0261426B97
:1008D000926911430268521C9200A2F1C042116059
:1008E000C16AB1F5804F1BD1816B0968826B526878
:1008F00041EA0211826B926841EA0221826B128AFC
:1009000041EA0251826B127D41EA0261826B926977
:10091000114302689200A2F1C042C2F8041107E03C
:100920006FF0704201688900A1F1C041C1F8042153
:100930007047000008B500F043FE01220021684620
:1009400000F0E8FC9DF80000512805D1302201217B
:100950000D4800F0DFFC13E000BF01F033FA00287F
:10096000FBD051200090002000F048FE0122002121
:10097000684600F0F7FC30220121034800F0F2FC49
:1009800000F0A4FE08BD00000800002030B50022E1
:100990008B071C0F0F2303FA04F20B4B8C1053F838
:1009A00024309343084C8D1044F8253023468C1096
:1009B00053F824308C07240F00FA04F42343024C2C
:1009C0008D1044F8253030BD080001402DE9F0417C
:1009D000024600250026002000230024002791F86D
:1009E00003C00CF00F0591F803C00CF0100CBCF123
:1009F000000F03D091F802C04CEA050591F800C041
:100A0000BCF1000F31D0146800202BE04FF0010C36
:100A10000CFA00F3B1F800C00CEA03069E4220D1A4
:100A200083004FF00F0C0CFA03F7BC4305FA03FCEC
:100A30004CEA040491F803C0BCF1280F06D14FF032
:100A4000010C0CFA00FCC2F814C00AE091F803C0D3
:100A5000BCF1480F05D14FF0010C0CFA00FCC2F8B4
:100A600010C0401C0828D1D31460B1F800C0BCF1FC
:100A7000FF0F34DD546800202EE000F1080C4FF029
:100A8000010808FA0CF3B1F800C00CEA03069E4214
:100A900021D183004FF00F0C0CFA03F7BC4305FA89
:100AA00003FC4CEA040491F803C0BCF1280F05D103
:100AB00000F1080C08FA0CF8C2F8148091F803C091
:100AC000BCF1480F07D100F1080C4FF0010808FAFB
:100AD0000CF8C2F81080401C0828CED35460BDE842
:100AE000F0810246002093680B400BB1012000E02A
:100AF0000020704741617047016170470AB1016190
:100B000000E04161704700BFFEE7000010B50446F9
:100B100034B100224FF480510448FFF7EFFF04E0A6
:100B2000012211030148FFF7E9FF10BD0014014045
:100B30002DE9F04106460F4614461D46DDF81880A3
:100B40002B4622463946304600F005FA04FB05F0F4
:100B5000414600F0C2F8BDE8F08100002DE9F04FF9
:100B600081468A4615461E46A5F1200000F0FF0B7F
:100B7000102308225146484600F0EDF92C2000F0E1
:100B80004BFB00241AE00F4800EB0B10075D4FF001
:100B900000080EE007F0010018B1099800F040FBD2
:100BA00002E0304600F03CFB7F1008F1010000F04D
:100BB000FF08B8F1080FEDDB601CC4B2102CE2DBBB
:100BC000BDE8F08F5024000838B504460D464FF4B8
:100BD0007840A4F10A01009088B20123142229462A
:100BE000FFF7A6FF4FF478400090A5F10A0081B20C
:100BF000142301222046FFF79BFF38BD70B506463F
:100C00000C461546F02E08DAB4F5A07F05DA01236C
:100C10001A462146304600F09EF92946012000F090
:100C20005CF870BD2DE9F84105460E4614461F4696
:100C3000DDF81C801AE028460830F02803DD002586
:100C400006F1100086B230461030B0F5A07F01DD0D
:100C500000250026CDF8008022783B463146284604
:100C6000FFF77CFF641C05F1080085B2207800289E
:100C7000E1D1BDE8F88100B597B00121080200F08C
:100C80001DFB02200190002002900520039000200F
:100C90000490059006904FF0805007900020089037
:100CA000099008200A9010200B9000200C900E90C4
:100CB0000F9010904FF480501190002012901390DC
:100CC000149001A81590169008A8FFF7BFFD012108
:100CD0000020FFF7A1FD17B000BD10B502460B467E
:100CE00000242C2000F098FA00BF03E0184600F022
:100CF00097FA641C9442F9D310BD000008B5012195
:100D0000084600F0EBFA0121602000F0E7FA03202A
:100D10008DF8020018208DF803004CF20370ADF836
:100D2000000069462C48FFF751FE4FF68070ADF881
:100D3000000069462948FFF749FE03208DF80200AC
:100D400018208DF803001020ADF8000069462248F5
:100D5000FFF73CFE2020ADF8000069461E48FFF773
:100D600035FE0121202000F0B9FA8020ADF8000006
:100D700069461948FFF72AFE0121202000F0AEFA4B
:100D80004FF40060ADF8000069461348FFF71EFEFF
:100D900010208DF8030003208DF80200012140206F
:100DA00000F09CFA0220ADF8000069460B48FFF7FE
:100DB0000DFE10208DF8030003208DF802000121A4
:100DC000202000F08BFA4FF48050ADF80000694607
:100DD0000148FFF7FBFD08BD001401400018014069
:100DE00000B50246012A06D0022A29D0032A4CD097
:100DF000042A24D16EE0362000F00EFAC82000F05C
:100E00000FFA2A2000F008FA002000F009FA00206A
:100E100000F006FA002000F003FAEF2000F000FADC
:100E20002B2000F0F9F9002000F0FAF9002000F082
:100E3000F7F9012000F0F4F93F2000F0F1F96EE03D
:100E4000362000F0E9F9682000F0EAF92A2000F0E5
:100E5000E3F9002000F0E4F9002000F0E1F90120BE
:100E600000F0DEF93F2000F0DBF92B2000F0D4F990
:100E7000002000F0D5F9002000F0D2F9002000F0A9
:100E8000CFF9EF2000F0CCF949E0362000F0C4F9AA
:100E9000282000F0C5F92A2000F0BEF9002000F05B
:100EA000BFF9002000F0BCF9012000F0B9F93F20A3
:100EB00000F0B6F92B2000F0AFF9002000F0B0F9F7
:100EC000002000F0ADF9002000F0AAF9EF2000F0BA
:100ED000A7F924E0362000F09FF9482000F0A0F99F
:100EE0002A2000F099F9002000F09AF9002000F083
:100EF00097F9002000F094F9EF2000F091F92B20F1
:100F000000F08AF9002000F08BF9002000F088F949
:100F1000012000F085F93F2000F082F900BF00BFFA
:100F20002C2000F079F900BD08B5FFF7E7FEFFF7C8
:100F3000A2FE0120FFF7EAFD00F052F900F038F8B8
:100F40004FF6FF704FF4A073F02200210090084686
:100F5000FFF7EEFD08BD30B504460D462A2000F02F
:100F60005BF9201200F05CF9E0B200F059F9A11829
:100F7000491EC1F30F2000F053F9A118491EC8B251
:100F800000F04EF92B2000F047F9281200F048F944
:100F9000E8B200F045F9E918491EC1F30F2000F04E
:100FA0003FF9E918491EC8B200F03AF930BD000017
:100FB00000B5CF2000F030F9002000F031F9812099
:100FC00000F02EF9302000F02BF9ED2000F024F98C
:100FD000642000F025F9032000F022F9122000F02F
:100FE0001FF9812000F01CF9E82000F015F9852098
:100FF00000F016F9102000F013F9782000F010F935
:10100000CB2000F009F9392000F00AF92C2000F07B
:1010100007F9002000F004F9342000F001F9022063
:1010200000F0FEF8F72000F0F7F8202000F0F8F8C4
:10103000EA2000F0F1F8002000F0F2F8002000F0C3
:10104000EFF8B12000F0E8F8002000F0E9F81B20EC
:1010500000F0E6F8B62000F0DFF80A2000F0E0F833
:10106000A22000F0DDF8C02000F0D6F8352000F016
:10107000D7F8C12000F0D0F8112000F0D1F8C52039
:1010800000F0CAF8452000F0CBF8452000F0C8F881
:10109000C72000F0C1F8A22000F0C2F8F22000F052
:1010A000BBF8002000F0BCF8262000F0B5F80120C5
:1010B00000F0B6F8E02000F0AFF80F2000F0B0F834
:1010C000262000F0ADF8242000F0AAF80B2000F054
:1010D000A7F80E2000F0A4F8092000F0A1F8542091
:1010E00000F09EF8A82000F09BF8462000F098F849
:1010F0000C2000F095F8172000F092F8092000F07D
:101100008FF80F2000F08CF8072000F089F80020FD
:1011100000F086F8E12000F07FF8002000F080F871
:10112000192000F07DF81B2000F07AF8042000F070
:1011300077F8102000F074F8072000F071F82A20EA
:1011400000F06EF8472000F06BF8392000F068F8E6
:10115000032000F065F8062000F062F8062000F099
:101160005FF8302000F05CF8382000F059F80F20CC
:1011700000F056F8362000F04FF8C82000F050F884
:101180002A2000F049F8002000F04AF8002000F082
:1011900047F8002000F044F8EF2000F041F82B2041
:1011A00000F03AF8002000F03BF8002000F038F89A
:1011B000012000F035F83F2000F032F83A2000F02E
:1011C0002BF8552000F02CF8112000F025F80348EA
:1011D000FFF79DFA292000F01FF800BDFCBF0200B8
:1011E00010B5002202210748FFF788FC0648FFF7E8
:1011F0008EFA012202210348FFF780FC0248FFF724
:1012000086FA10BD00180140FCBF020010B5FFF7C0
:101210008BFE00F0E0FC10BD4FF0C041088070472D
:1012200001490880704700000000026000BFFEE72F
:101230007047000070B5002100230F22C47804B36A
:10124000154C246804F4E064C4F5E064210AC1F19B
:101250000403CA40447804FA03F18478144021431B
:1012600009010E4C0678A155047804F01F050124ED
:10127000AC4005786D11AD0005F1E025C5F80041E1
:1012800009E0047804F01F050124AC40044D067801
:10129000761145F8264070BD0CED00E000E400E05A
:1012A00080E100E002490143024A116070470000FA
:1012B0000000FA050CED00E07047000029B1064A75
:1012C00052690243044B5A6104E0034A5269824363
:1012D000014B5A61704700000010024029B1064AD4
:1012E00092690243044B9A6104E0034A9269824383
:1012F000014B9A61704700000010024021B1028842
:1013000042F04002028004E002884FF6BF731A40A8
:101310000280704770B505460C46164601211048FC
:10132000FFF7E8FB032000F08BF9C4F3074000F05F
:1013300087F9C4F3072000F083F9E0B200F080F9E8
:1013400004E0FF2000F07CF928706D1C301EA6F12F
:1013500001018EB2F5D101210148FFF7CDFB70BD2F
:10136000001001402DE9F05F07460E4614464FF08D
:101370000008C146C2460025AB4606F0FF0ACAF186
:101380000000C5B22046E11704EB1161C1F3072844
:10139000E11704EB11610912A4EB012101F0FF092F
:1013A000BAF1000F20D1B8F1000F05D12246314625
:1013B000384600F0D5F864E009E04FF48072314619
:1013C000384600F0CDF806F5807607F58077B8F15D
:1013D0000000A8F1010101F0FF08EED14A463146B4
:1013E000384600F0BDF84CE0B8F1000F18D1A9451F
:1013F00010DDA9EB050000F0FF0B2A463146384608
:1014000000F0AEF82E442F445A463146384600F0DC
:10141000A7F836E022463146384600F0A1F830E021
:10142000601B84B22046E11704EB1161C1F3072869
:10143000E11704EB11610912A4EB012101F0FF098E
:101440002A463146384600F08BF82E442F4409E0F6
:101450004FF480723146384600F082F806F5807607
:1014600007F58077B8F10000A8F1010101F0FF084D
:10147000EED1B9F1000F04D04A463146384600F0AB
:101480006FF8BDE8F09F000000B587B001210803A8
:10149000FFF724FF01211020FFF720FF0120ADF806
:1014A000040003208DF8060010208DF8070001A924
:1014B0002848FFF78BFA01210420FFF70FFF2020B7
:1014C000ADF8040018208DF8070001A92248FFF7A5
:1014D0007DFA01210420FFF701FF4020ADF8040050
:1014E00001A91D48FFF772FA01210420FFF7F6FE5B
:1014F0008020ADF8040001A91748FFF767FA012121
:101500001448FFF7F9FA0020ADF808004FF4827094
:10151000ADF80A000020ADF80C000220ADF80E0076
:101520000120ADF810004002ADF812000820ADF81F
:1015300014000020ADF816000720ADF8180002A92D
:10154000064800F0E1F801210448FFF7D7FE07B094
:1015500000BD0000001001400008014000300140C3
:1015600070B505460C46164600F0A0F80121134858
:10157000FFF7C0FA022000F063F8C4F3074000F060
:101580005FF8C4F3072000F05BF8E0B200F058F811
:10159000B6F5807F01DD4FF4807603E0287800F017
:1015A0004FF86D1C301EA6F101018EB2F6D101215B
:1015B0000248FFF7A1FA00F05FF870BD001001408B
:1015C00010B5002401210C48FFF794FAAB2000F07D
:1015D00037F8FF2000F034F8FF2000F031F8FF204A
:1015E00000F02EF8FF2000F02BF8044601210248FD
:1015F000FFF782FA204610BD0010014010B50446E6
:1016000000F054F800F038F801210C48FFF772FAA6
:10161000202000F015F8C4F3074000F011F8C4F3DF
:10162000072000F00DF8E0B200F00AF801210348AD
:10163000FFF762FA00F020F810BD00000010014032
:1016400010B5044600BF02210A4800F04FF80028F8
:10165000F9D02146074800F055F800BF01210548A0
:1016600000F044F80028F9D0024800F048F8C0B271
:1016700010BD00000030014010B5002401210A48CF
:10168000FFF738FA0520FFF7DBFF00BFFF20FFF769
:10169000D7FF044604F001000028F7D101210248D9
:1016A000FFF72AFA10BD00000010014010B501211B
:1016B0000548FFF71FFA0620FFF7C2FF0121024885
:1016C000FFF71AFA10BD00000010014010B501210B
:1016D0000548FFF70FFAB920FFF7B2FF01210248D2
:1016E000FFF70AFA10BD000000100140024600207A
:1016F00013890B400BB1012000E000207047014628
:10170000888970478181704710B50022028802F4F1
:1017100041520B884C8823438C882343CC88234335
:101720000C8923434C8923438C892343CC8923434D
:101730001A430280838B4FF2FF74234083830B8A0A
:10174000038210BD704710B500F002F810BD000014
:101750000CB50020019000903348006840F48030C0
:101760003149086000BF3048006800F40030009044
:101770000198401C0190009818B90198B0F5A06F2D
:10178000F1D12948006800F4003010B10120009028
:1017900001E0002000900098012843D12348006810
:1017A00040F01000214908600846006820F003005E
:1017B00008600846006840F0020008601A48406867
:1017C000194948600846406848600846406840F447
:1017D000806048600846406820F47C1048600846F5
:1017E000406840F4E81048600846006840F08070A7
:1017F000086000BF0C48006800F000700028F9D0B5
:101800000948406820F003000749486008464068DE
:1018100040F00200486000BF0348406800F00C0040
:101820000828F9D10CBD0000001002400020024041
:101830007047000010B51348006840F001001149DE
:10184000086008464068104908400E49486008464C
:1018500000680E4908400B4908600846006820F4FB
:10186000802008600846406820F4FE0048604FF47D
:101870001F008860FFF767FF4FF0006004490860B1
:1018800010BD0000001002400000FFF8FFFFF6FE50
:1018900008ED00E000BFFEE72DE9F04705460C46E5
:1018A00016464FF0010921882289891AE388628946
:1018B0009A1A5143A2882389D31A67886289BA1A6F
:1018C00003FB1210FEF7F1FDC6E90C0100221346DE
:1018D000D6E90C713846FEF71FFE02D14FF0000921
:1018E00089E029882A89891AE38862899A1A5143EA
:1018F000AA882B89D31A67886289BA1A03FB121047
:10190000FEF7D3FDC6E9000121882289891AAA8839
:101910002B89D21A51432A88D21AA3882789DB1B24
:1019200002FB1310FEF7C1FDC6E902012189AA8856
:101930005143A2882B8902FB1311628851432288EC
:101940005A4323892F8803FB1723E28803FB0212E3
:10195000A18879432388AF8803FB1713618903FBB0
:101960000120FEF7A2FDC6E904016A886989511ABF
:10197000E38862899A1A5143EB886A899B1A6788BF
:101980006289BA1A03FB1210FEF78FFDC6E9060141
:1019900021882289891AEB886A899A1A51436B88AF
:1019A0006A899A1AA3882789DB1B02FB1310FEF7AA
:1019B0007CFDC6E908012189EA885143A3886A8928
:1019C00003FB12116288514322886B895A43238991
:1019D0006F8803FB1723E28803FB0213A188794376
:1019E0002788EA8807FB1212618902FB0130FEF7A3
:1019F0005CFDC6E90A014846BDE8F08701B5002054
:101A000007E00C2100BF0A1EA1F10103D9B2FAD1EF
:101A1000401C00998842F4D308BD00000EB5012196
:101A20004120FFF75BFC00F01FF81020ADF8080024
:101A300048208DF80B0002A90A48FEF7C7FF0421D1
:101A40000846FEF7A3FF1020009000208DF8040048
:101A50000C208DF8050001208DF806006846FEF781
:101A600091FE0EBD0018014008B54FF4C060FFF7AD
:101A700019FC0A208DF8000000208DF801008DF877
:101A8000020001208DF803006846FFF7D3FB08BD74
:101A900008B501216020FFF721FC0120ADF800000E
:101AA0008DF8020010208DF8030069461548FEF7F6
:101AB0008DFF0420ADF8000069461248FEF786FF4E
:101AC0000820ADF8000001208DF8020048208DF8B4
:101AD000030069460B48FEF779FF4FF40050ADF85C
:101AE000000001208DF8020010208DF803006946E7
:101AF0000548FEF76BFF4FF400510348FEF7FAFF6D
:101B000008BD000000180140001401402DE9F04F0D
:101B100089B081460C460120079006A800F06AF8BB
:101B2000002852D0BDF81A00FEF7D0FC0546D4E9D3
:101B300002733A46FEF7D8FB82468B46BDF8180082
:101B4000FEF7C4FC0746D4E900532A46FEF7CCFB57
:101B500052465B46CDE90001FEF71FFBCDE90201CD
:101B6000D4E904532A46FEF718FBCDE90401FEF739
:101B7000BAFCA9F80000BDF81A00FEF7A7FC07465A
:101B8000D4E908532A46FEF7AFFB82468B46BDF8E0
:101B90001800FEF79BFC0746D4E906532A46FEF7D9
:101BA000A3FB52465B46CDE90001FEF7F6FACDE90C
:101BB0000201D4E90A532A46FEF7EFFACDE90401FF
:101BC000FEF791FCA9F8020001E0002007900798B9
:101BD00009B0BDE8F08F10B5FFF75AFFFFF71EFF01
:101BE00010BD10B50446204600F0E4FA00F0C2F83B
:101BF00010BD00002DE9F0478CB0064600252821D5
:101C00006846FEF7B8FA00BF0AA90BA800F09EF8D4
:101C1000BDF92C002DF81500BDF9281005A820F8F5
:101C20001510681CC5B210214648FEF75AFF08B9C6
:101C30000A2DE9DB10214348FEF753FF10B10020C5
:101C4000414908700A2D7BD1BDF90070B846BDF935
:101C50001490CA4601240EE03DF91400B84202DA9D
:101C60003DF9147005E03DF91400404501DD3DF9F2
:101C70001480601CC4B20A2CEEDB012412E005A81B
:101C800030F91400484503DA05A830F9149007E04C
:101C900005A830F91400504502DD05A830F914A05C
:101CA000601CC4B20A2CEADBBDF90000BDF90210C9
:101CB0000844BDF904100844BDF906100844BDF9F4
:101CC00008100844BDF90A100844BDF90C10084476
:101CD000BDF90E100844BDF910100844BDF91210EA
:101CE0000844C01BA0EB0800C0F3CF003080BDF952
:101CF0001410BDF916000144BDF918000144BDF9E6
:101D00001A000144BDF91C000144BDF91E00014444
:101D1000BDF920000144BDF922000144BDF92400B1
:101D20000144BDF926000844A0EB0900A0EB0A001D
:101D3000C0F3CF00708001200CB0BDE8F087FFE752
:101D40000020F9E700180140380000202DE9F0419B
:101D500004460D469020FFF744FF06B20120FFF72E
:101D60004DFED020FFF73DFF07B226802F80BDE853
:101D7000F081000070B5002504211148FEF7BAFE7D
:101D800001210F48FEF7B8FE002414E001210C48A1
:101D9000FEF7B0FE08210A48FEF7A3FE0646C4F18E
:101DA0000B0006FA00F0284385B201210448FEF733
:101DB000A3FE601CC4B20C2CE8DB284670BD0000FA
:101DC000001801402DE9F04FA7B04FF00009CA46B6
:101DD0000020239022908346F0244FF4A075A01099
:101DE000ADF87800A810ADF87A00BDF87800ADF82D
:101DF0007C0005EB450081101EA8C18004EB440067
:101E00008010ADF880001EA8C1884181BDF8800017
:101E1000ADF88400BDF87A101EA8C1810120FEF73C
:101E2000DFFF002642E04FF6FF702B4622460021DE
:101E300000900846FEF77CFE0FF2183B5846FEF76E
:101E4000A5F9C01FA4EBC00047084FF47840691003
:101E50004FF6FF735A4600903846FEF7E3FE721CB9
:101E6000C2A124A800F0D8F94FF478401022C2EBA8
:101E70006501009060104FF6FF7324AAFEF7D2FEB2
:101E8000BB48FFF7BBFD1EAA02EB860251881EAAC3
:101E900032F82600FEF798FE00BF1AA901EB860073
:101EA000FFF7A8FE0028F8D0701CC6B2042EBADBDB
:101EB0000CAA1AA91EA8FFF7EFFC00221346DDE9C1
:101EC00018713846FEF728FB00D10FE11AA9C8891E
:101ED000FEF7FCFACDE90001DDE90E733A46FEF7A4
:101EE00003FACDE90401BDF87400FEF7EFFACDE97D
:101EF0000001DDE90C733A46FEF7F6F9CDE902017F
:101F0000DDE90423FEF749F9CDE90601DDE91073A7
:101F10003A46FEF742F9CDE90801DDE918733A4681
:101F2000FEF754FACDE90A01FEF7DDFA1FFA80F94F
:101F30001AA9C889FEF7CAFACDE90001DDE91473D0
:101F40003A46FEF7D1F9CDE90401BDF87400FEF779
:101F5000BDFACDE90001DDE912733A46FEF7C4F996
:101F6000CDE90201DDE90423FEF717F9CDE9060109
:101F7000DDE916733A46FEF710F9CDE90801DDE90F
:101F800018733A46FEF722FACDE90A01FEF7ABFADA
:101F90001FFA80FABDF88400484504DABDF88400D1
:101FA000A9EB000003E0BDF88400A0EB090080B2BB
:101FB00023901EA8C089504504DA1EA8C089AAEB48
:101FC000000003E01EA8C089A0EB0A0080B22290A6
:101FD00023980A2802DC22980A2800DD86E00022E5
:101FE000644BDDE90C713846FEF77EF9CDE90A0154
:101FF000DDE918733A46FEF7E9F95F4A03C20022A9
:102000005C4BDDE90E713846FEF76EF9CDE90A0149
:10201000DDE918733A46FEF7D9F9574AC2E90201D9
:102020000022544BDDE910713846FEF75DF9CDE929
:102030000A01DDE918733A46FEF7C8F94E4AC2E9CB
:10204000040100224B4BDDE912713846FEF74CF9D2
:10205000CDE90A01DDE918733A46FEF7B7F9464AB9
:10206000C2E906010022434BDDE914713846FEF750
:102070003BF9CDE90A01DDE918733A46FEF7A6F906
:102080003D4AC2E9080100223A4BDDE916713846A3
:10209000FEF72AF9CDE90A01DDE918733A46FEF7A1
:1020A00095F9354AC2E90A014FF6FF702B462246E0
:1020B000002100900846FEF73BFD0FF2C00B58468A
:1020C000FEF764F8A4EBC00047084FF478406910AD
:1020D0004FF6FF735A4600903846FEF7A3FD2C4892
:1020E000FFF78CFC012027B0BDE8F08F4FF6FF70A2
:1020F0002B462246002100900846FEF719FD0FF2FC
:10210000940B5846FEF742F8A4EBC00047084FF482
:10211000784069104FF6FF735A4600903846FEF734
:1021200081FD0FF2800B5846FEF730F8A4EBC0009B
:1021300047084FF478400090102000EB65014FF6FF
:10214000FF735A463846FEF76DFD1948FFF756FCF7
:102150000020C8E7546F7563682043616C69627240
:10216000617465202E2E2E2E2E2E00002564000078
:10217000A08601000000F03F0800002043616C6968
:1021800062726174652053756363656400000000CA
:10219000400D030043616C69627261746520666181
:1021A000696C000074727920616761696E000000DB
:1021B00040420F0070B5054604211648FEF79AFC10
:1021C00001211448FEF796FC00241FE0C4F107002B
:1021D00045FA00F000F0010020B104210D48FEF79F
:1021E0008BFC03E004210B48FEF784FC0520FFF77D
:1021F00005FC01210748FEF77FFC0520FFF7FEFBE9
:1022000001210448FEF776FC601CC4B2082CDDDB1B
:1022100070BD0000001801400FB4084B10B504A9B0
:1022200002AA039800F01CF8044602A9002000F05E
:10223000C1F8204610BC5DF814FB0000B52300086F
:1022400002E008C8121F08C1002AFAD1704770477F
:10225000002001E001C1121F002AFBD170470000DD
:102260002DE9FF4F89B09B460446002506E025284E
:102270000BD05A460B999047641C6D1C207800289F
:10228000F5D10DB02846BDE8F08F0027B8460122F1
:10229000474900E0074314F8013F203B02FA03F0EE
:1022A0000842F7D120782E2819D114F8010F47F0F1
:1022B00004072A280ED06FF02F022078A0F13001F9
:1022C00009290CD808EB880102EB410100EB010859
:1022D000641CF2E70A98641C50F8048B0A9020787A
:1022E0000028CED0642808D0692806D075281ED0D2
:1022F0005A460B9990476D1C58E00A994FF00A090D
:1023000001C90A91002802DA40422D2102E0390574
:1023100004D52B218DF82010012103E0F90704D00A
:102320002021F7E78A4608AE0DE00021FAE70A9976
:102330004FF00A0901C90A91F7E74946FEF704F987
:10234000303106F8011D0028F7D1ADEB060000F191
:102350002009780701D44FF00108C84502DDA8EB39
:10236000090000E000208046002706E008A85A4641
:10237000C05D0B9990476D1C7F1C5745F6DB04E050
:1023800030205A460B9990476D1CB8F10001A8F116
:102390000108F5DC05E016F8010B5A460B99904749
:1023A0006D1CB9F10001A9F10109F4DC641C65E7B9
:1023B000092801000A68531C0B6010707047000068
:1023C00008B5FEF723FFFFF75FF8FEF7B3FA012029
:1023D000FEF706FD4FF2DE704FF4A073F0220021ED
:1023E00000900846FEF7A4FB1F203C231A46E62176
:1023F00000905A20FEF79CFB01210820FEF76EFF9B
:1024000023200F4908801020C870032088700D48D1
:10241000FEF7DCFA01200B49103108600220086049
:10242000202008600BE008480078012804D1FEF75E
:1024300043F90020044908700448FEF771F9F2E7F7
:1024400000000020000C01403800002020A10700FF
:10245000000000000000000000000000000000007C
:10246000000000183C3C3C18180018180000000040
:10247000000000666666000000000000000000002A
:102480000000006C6CFE6C6C6CFE6C6C000000005C
:102490000018183C66060C183060663C18180000DE
:1024A00000000E1B5B6E30180C76DAD8700000004E
:1024B0000000001C36361C06F66666DC00000000D4
:1024C00000000018181800000000000000000000C4
:1024D0000000003018180C0C0C0C0C181830000000
:1024E0000000000C1818303030303018180C000084
:1024F00000000000006C38FE386C00000000000096
:10250000000000000018187E1818000000000000ED
:102510000000000000000000000038383018000003
:10252000000000000000007E00000000000000002D
:10253000000000000000000000003838000000002B
:102540000000006060303018180C0C060600000017
:1025500000000078CCECECCCDCDCCC780000000097
:1025600000000030383E30303030303000000000A5
:102570000000003C66666030180C067E000000001B
:102580000000003C666660386066663C0000000043
:102590000000000C0C6C6C6C66FE606000000000BB
:1025A0000000007E0606063E6060301E000000004F
:1025B00000000038180C3E666666663C00000000AD
:1025C0000000007E60303018180C0C0C0000000079
:1025D0000000003C66666E3C7666663C00000000CB
:1025E0000000003C666666667C30181C0000000037
:1025F00000000000003838000000383800000000FB
:1026000000000000003838000000383830180000A2
:102610000000006030180C060C183060000000004C
:102620000000000000007E007E00000000000000AE
:10263000000000060C18306030180C060000000086
:102640000000003C666630181800181800000000F2
:102650000000007EC3C3F3DBDBF303FE00000000D9
:10266000000000183C6666667E6666660000000034
:102670000000003E6666663E6666663E000000003C
:102680000000003C666606060666663C0000000028
:102690000000001E366666666666361E0000000094
:1026A0000000007E0606063E0606067E00000000CC
:1026B0000000007E0606063E060606060000000034
:1026C0000000003C666606067666667C0000000038
:1026D000000000666666667E66666666000000004C
:1026E0000000003C181818181818183C00000000CA
:1026F00000000060606060606066663C0000000092
:10270000000000666636361E36366666000000003B
:1027100000000006060606060606067E000000000B
:10272000000000C6C6EED6D6D6C6C6C6000000005B
:10273000000000C6C6CEDEF6E6C6C6C60000000033
:102740000000003C666666666666663C0000000047
:102750000000003E6666663E0606060600000000B3
:102760000000003C666666666666663C3060000097
:102770000000003E6666663E366666660000000043
:102780000000003C66060C183060663C000000004B
:102790000000007E181818181818181800000000FB
:1027A00000000066666666666666663C00000000BD
:1027B000000000666666666666663C1800000000FB
:1027C000000000C6C6C6D6D6D66C6C6C00000000F1
:1027D00000000066662C181834666666000000006B
:1027E000000000666666663C1818181800000000B5
:1027F0000000007E606030180C06067E00000000BD
:102800000000003C0C0C0C0C0C0C0C0C0C0C3C00D8
:1028100000000006060C0C18183030606000000044
:102820000000003C303030303030303030303C0050
:1028300000183C66000000000000000000000000DE
:102840000000000000000000000000000000FF0089
:10285000001C183000000000000000000000000014
:1028600000000000003C60607C66667C00000000A8
:1028700000000006063E66666666663E00000000D2
:1028800000000000003C66060606663C00000000F2
:1028900000000060607C66666666667C0000000082
:1028A00000000000003C66667E06063C000000005A
:1028B000000000780C0C0C7E0C0C0C0C00000000CE
:1028C00000000000007C66666666667C60603E0014
:1028D00000000006063E666666666666000000004A
:1028E00000001818001E18181818187E00000000A4
:1028F00000003030003C30303030303030301E009E
:1029000000000006066666361E3666660000000099
:102910000000001E181818181818187E0000000073
:1029200000000000007ED6D6D6D6D6C60000000035
:1029300000000000003E66666666666600000000F5
:1029400000000000003C66666666663C0000000011
:1029500000000000003E66666666663E06060600EB
:1029600000000000007C66666666667C6060600051
:10297000000000000066760E060606060000000055
:1029800000000000007C06063C60603E0000000085
:102990000000000C0C7E0C0C0C0C0C7800000000ED
:1029A00000000000006666666666667C0000000047
:1029B000000000000066666666663C1800000000C5
:1029C0000000000000C6D6D6D6D66C6C0000000011
:1029D000000000000066663C183C666600000000CF
:1029E00000000000006666666666663C30180F00F0
:1029F00000000000007E6030180C067E0000000021
:102A0000000000301818180C060C181818300000B8
:102A10000000001818181818181818181818180096
:102A20000000000C1818183060301818180C00003E
:102A30000000008EDB7100000000000000000000BC
:102A4000602A0008000000203C000000402200082E
:102A50009C2A00083C0000200404000050220008CA
:102A60000000000000000000925ED4EE5701B63F67
:102A70002BA226FA7C9451BF3CF54883DBEA13C0B5
:102A800079E9263108AC5CBF08E8BE9CD9AEB03FFE
:0C2A90001C5C3AE63CA32AC000000000D9
:0400000508000131BD
:00000001FF
